:020000040800F2
:10000000880A002051010008590100085B0100081E
:1000100000000000000000000000000000000000E0
:100020000000000000000000000000005D0100086A
:1000300000000000000000005F01000861010008EE
:10004000630100080000000063010008630100086C
:100050000D17000863010008630100086301000830
:10006000000000006301000863010008630100084C
:10007000630100086301000863010008000000003C
:1000800063010008630100086301000863010008C0
:1000900063010008630100086301000863010008B0
:1000A00063010008611700087D170008630100085C
:1000B000630100086301000800F002F800F039F85D
:1000C0000CA030C8083824182D18A246671EAB466D
:1000D00054465D46AC4201D100F02BF87E460F3EFF
:1000E0000FCCB6460126334200D0FB1AA246AB46DF
:1000F00033431847502F0000702F000000230024C6
:1001000000250026103A01D378C1FBD8520700D34E
:1001100030C100D50B6070471FB500F083FB0400B1
:100120000020002102F038FF401C60601FBD10B5A8
:1001300010BD00F0C3FB1146FFF7EEFF02F006F919
:1001400000F0DBFB03B4FFF7F2FF03BC00F0DEFBC3
:100150000748804707480047FEE7FEE7FEE7FEE75F
:10016000FEE7FEE704480549054A064B70470000D4
:1001700099170008B900000888040020880A0020A8
:10018000880600208806002010B500F04BFB001DFB
:1001900010BD00BF052E000030B5441C03E00178FF
:1001A000401C00290DD08107F9D10B4BDD0104C89B
:1001B000D11A91432940FAD0001B0A0603D0C01E71
:1001C00030BD001B30BD0A0401D0801E30BD0902C5
:1001D000FCD0401E30BD00000101010100220309D6
:1001E0008B422CD3030A8B4211D300239C464EE052
:1001F00003460B433CD4002243088B4231D303090E
:100200008B421CD3030A8B4201D394463FE0C309BF
:100210008B4201D3CB01C01A524183098B4201D3D7
:100220008B01C01A524143098B4201D34B01C01AC2
:10023000524103098B4201D30B01C01A5241C3083A
:100240008B4201D3CB00C01A524183088B4201D3A9
:100250008B00C01A524143088B4201D34B00C01A95
:100260005241411A00D201465241104670475DE0AA
:10027000CA0F00D04942031000D34042534000222D
:100280009C4603098B422DD3030A8B4212D3FC22D6
:10029000890112BA030A8B420CD3890192118B4255
:1002A00008D3890192118B4204D389013AD092116B
:1002B00000E08909C3098B4201D3CB01C01A524126
:1002C00083098B4201D38B01C01A524143098B42EF
:1002D00001D34B01C01A524103098B4201D30B01D8
:1002E000C01A5241C3088B4201D3CB00C01A5241FD
:1002F00083088B4201D38B00C01A5241D9D24308E4
:100300008B4201D34B00C01A5241411A00D2014620
:10031000634652415B10104601D34042002B00D58A
:100320004942704763465B1000D3404201B500204C
:10033000C046C04602BD704770477047F0B5F94DE2
:100340000C091E092C402E402F468BB0A7437DD0B0
:10035000B543FCD0002E7AD0002CFCD00D465D4079
:10036000ED0F2543AC1BFF25AD0464190894C502AD
:10037000440DC9022143500DDC0204430120C00793
:1003800001430443D2020191200C110C00958C46CC
:10039000010423468B430A9161460904E24D8A43D6
:1003A0000991010A7D4449198039097805464D4370
:1003B00001266D18F605751B6943C90C640B891C71
:1003C0004C436418B5012C1B250C2E04B4434C433C
:1003D0004D43210C691889090591009DE90701D059
:1003E0000121C90704912C4601996708CD072F43C5
:1003F0004C08059DE10B4D432D0C2946664675437F
:1004000002950D4645432E46029D7D1BB441009545
:100410000D465D4301942C0C2F040D465543AE460A
:100420002D0C3D43029503947546049C2D04641BDA
:10043000049406D2029C039D641C0026754103951A
:10044000029401AC70CC009F7D1B01E03EE162E1B3
:10045000B44109040095079101940599A4086143EA
:10046000090C0C464443650BE7040C46664674438E
:10047000A646640B3C43039502947446049DE40431
:100480002C1B049406D2029C039D641C002675411B
:100490000395029401AC70CC009F7D1BB441019484
:1004A0000C465C430095650FE7000C465443A64696
:1004B000640F3C43039502947446049DE4002C1B96
:1004C000049406D2029C039D641C0026754103958A
:1004D000029401AC70CC009F7D1BB441AE09AF0605
:1004E000049DC900AD092F43049DA406AD060495E3
:1004F000079D344369180791059DE10B4D432D0C71
:1005000029466646754302950D4645432E46029D93
:100510007D1BB44100950D465D4301942C0C2F04C6
:100520000D465543AE462D0C3D430295039475464A
:10053000049C2D04641B049406D2029C039D641C3D
:10054000002675410395029401AC70CC009F7D1B81
:10055000B44101948C050694079C890A61180095A2
:100560000791019C0599A4086143090C0D46454378
:10057000680BEF040D46644665436C0B3C43049FD7
:10058000ED047D1BAC4602D20025641C6841009E30
:10059000019D371B85410846584301950C46460F7F
:1005A000C5005443600F28436546E4002C1B02D26B
:1005B0000025401C6E41019D3F1AB5412846BD09EA
:1005C000800628438446A009BF064E020699A40669
:1005D00076180743079D002068410A990790194340
:1005E0000020099B00906046FF1913434041E20F31
:1005F00064003A43A4460446D71A8C41A04203D96A
:100600000120009020463A46C70F941840416246A8
:10061000D20F2243644664000494009CBE466400EA
:10062000D71AA446044602978C417746002F01D181
:10063000A04204D96046401C8446029A2046C40F5A
:10064000A64694184041049A0546D20F22436446B8
:100650006400D31A8D417146002901D1A84202D904
:1006600028461A46641C10430122002800D0164375
:1006700061020020079B891904465C410223002C7B
:1006800002DB491813466441089DCE0A2D145D19FA
:100690004B056705E10A2C050D1908993E43C9076A
:1006A0006940002B08D0934006D30022761C5141AC
:1006B000002B01D1760876001C4A002D43DB154241
:1006C00041D0AA433FD030460BB0F0BD06180D46CE
:1006D0004D41174C7642AC411AD395181C465C41EB
:1006E000134A6D42A24113D3012252054C00D44259
:1006F0000AD15C00D4420BD04B4002D59202114388
:10070000E2E749004908DFE75940C90FC90718E087
:1007100000200849D8E7054801420DD10342F7D02F
:10072000F2E700000000FF071C2C00000000F07F33
:100730000000E0FF0000F87F114859400143C0125B
:1007400041400020C0E70123089A9B069A4205DC3D
:10075000032252078918C90FC907B5E705225207B6
:100760008918074A1143D2125140ADE770B51546BA
:100770001C4602460B4628462146FFF7DFFD70BDAA
:10078000FFFFFF7F0346CA02400D10B510430A1554
:1007900004D00124E4072043002A05DB0A4CA21AF6
:1007A00004D4D040FF2A00DD002010BD4A00002BF9
:1007B00001D0012000E00020101801225205D04293
:1007C000F2D8C817C04310BD1E0400001F22030C3E
:1007D00002D10F22000402D0030E03D004E0002057
:1007E000014670470002083A030F01D10001121FB1
:1007F000830F01D18000921E002801DB4000521EB1
:10080000120551184205C012411810467047C10F19
:10081000C90700D04042012292071143D6E70121C7
:100820008907D3E700487047480400200048704714
:1008300028040020024670B50A4392072AD11E4DB3
:10084000EE0104C808C9541B9443344017D0D0B2F9
:10085000D9B2401A2106014310D190B299B2401A80
:10086000210401430AD110021902000A090A401AA0
:100870002102014302D1100E190E401A70BD9A4296
:10088000DFD010BA19BA884201D9012070BD00200A
:10089000C04370BD02780B78401C491C002A09D067
:1008A0009A4207D102780B78401C491C002A01D0DB
:1008B0009A42EFD0D01A70BD010101017546FFF7D1
:1008C000B5FFAE46050069465346C008C0008546E0
:1008D00018B020B5FFF746FC60BC00274908B646B3
:1008E0000026C0C5C0C5C0C5C0C5C0C5C0C5C0C53F
:1008F000C0C5403D49008D46704710B50446C0460E
:10090000C0462046FFF71EFC10BD0000014918201C
:10091000ABBEFEE726000200704770B58C18057864
:10092000401C6B075B0F01D10378401C2A1106D1D4
:100930000278401C03E00678401C0E70491C5B1EC8
:10094000F9D12B0705D40023521E0DD40B70491C7E
:10095000FAE70378401CCB1A921C03E01D780D7057
:10096000491C5B1C521EF9D5A142D8D3002070BD92
:10097000FFB590B01A9D2E9C44200190CAB202216E
:10098000F74801F0F3FF07220321F54801F0EEFFDD
:10099000F44E1998771C002803D0199801283ED0EE
:1009A00073E000220421EE4801F0E0FF1298C2B289
:1009B0000521EB4801F0DAFF1398C2B20621E8489E
:1009C00001F0D4FF012D25D0102D25D03046C2B224
:1009D00069460A7001040B0E69460F934B700102C1
:1009E0000B0E69460E938B70050ECD700821DC4806
:1009F00001F0BCFF0921DA480F9A01F0B7FF0A2184
:100A0000D7480E9A01F0B2FF2A460B21D44801F0D4
:100A1000ADFF3AE03046DAE711200005D7E70022C3
:100A20000421CF4801F0A2FF1298C2B20521CC48A0
:100A300001F09CFF1398C2B20621C94801F096FF4D
:100A4000012D29D0102D29D03846C2B26B461A701C
:100A50000104090E0D9159700102090E0C91997053
:100A6000050EDD700821BE4801F080FF0921BC4859
:100A70000D9A01F07BFF0A21B9480C9A01F076FF2C
:100A80002A460B21B64801F071FF1D98002807D0B7
:100A90001D98012832D05EE03846D6E7B248D4E748
:100AA00001220C21AE4801F061FF1B98C2B20D215A
:100AB000AB4801F05BFF1C98C2B20E21A84801F0C0
:100AC00055FF1E98002069460870487001258D70FA
:100AD000CD7000221021A24801F048FF0022112110
:100AE0009F4801F043FF2A4612219D4801F03EFF36
:100AF0002A4613219A4801F039FF2CE001220C21EB
:100B0000974801F033FF1B98C2B20D21944801F0C1
:100B10002DFF1C98C2B20E21914801F027FF01253C
:100B20001E9869460D70002048708D70CD702A4661
:100B300010218B4801F01AFF00221121884801F092
:100B400015FF2A461221864801F010FF2A4613217C
:100B5000834801F00BFF2198002803D02198012839
:100B60003ED075E0022214217D4801F0FFFE1F985F
:100B7000C2B215217A4801F0F9FE2098C2B21621BE
:100B8000774801F0F3FE2298012824D022982028EB
:100B900023D03046C2B26B461A700104090E0B9185
:100BA00059700102090E0A919970050EDD70182125
:100BB0006B4801F0DBFE192169480B9A01F0D6FE63
:100BC0001A2167480A9A01F0D1FE2A461B2164487F
:100BD00001F0CCFE3CE03046DCE709204005D9E7D7
:100BE000022214215E4801F0C1FE1F98C2B21521F5
:100BF0005B4801F0BBFE2098C2B21621584801F0B4
:100C0000B5FE229801282AD02298202829D03846DB
:100C1000C2B26B461A700104090E099159700102A3
:100C2000090E08919970050EDD7018214C4801F0ED
:100C30009DFE19214A48099A01F098FE1A21484858
:100C4000089A01F093FE2A461B21454801F08EFECA
:100C50002598002807D02598012842D079E0384609
:100C6000D6E74248D4E703221C213D4801F07EFE2E
:100C70002398C2B21D213A4801F078FE2498C2B2EE
:100C80001E21374801F072FE2698012824D02698AC
:100C9000102823D03046C2B26B461A700104090EE8
:100CA000079159700102090E06919970050EDD70C9
:100CB00020212B4801F05AFE21212948079A01F0F2
:100CC00055FE22212648069A01F050FE2A4623218D
:100CD000234801F04BFE3CE03046DCE711200005E4
:100CE000D9E703221C211E4801F040FE2398C2B21E
:100CF0001D211B4801F03AFE2498C2B21E2118485B
:100D000001F034FE2698012832D02698102831D0E0
:100D10003846C2B26B461A700104090E059159702B
:100D20000102090E04919970050EDD7020210C4816
:100D300001F01CFE21210A48059A01F017FE22212C
:100D40000748049A01F012FE2A462321044801F0C4
:100D50000DFE299800280FD0299801283AD066E086
:100D600067000020000001010100100101002001C6
:100D70003846CEE7B448CCE704222421B34801F03A
:100D8000F5FD2798C2B22521B04801F0EFFD289863
:100D9000C2B22621AD4801F0E9FD2A98002069463B
:100DA0000870487001258D70CD7000222821A74859
:100DB00001F0DCFD00222921A44801F0D7FD2A46DC
:100DC0002A21A24801F0D2FD2A462B219F4801F09A
:100DD000CDFD2CE0042224219C4801F0C7FD27987A
:100DE000C2B22521994801F0C1FD2898C2B226213E
:100DF000964801F0BBFD01252A9869460D70002038
:100E000048708D70CD702A462821904801F0AEFDC3
:100E1000002229218D4801F0A9FD2A462A218B486C
:100E200001F0A4FD2A462B21884801F09FFD2D9852
:100E3000002803D02D98012842D07AE005222C21E9
:100E4000824801F093FD2B98C2B22D217F4801F01A
:100E50008DFD2C98C2B22E217C4801F087FD012C1B
:100E600026D0042C26D0102C27D03546EAB268466E
:100E700002702804010E6846039141702802040E96
:100E8000684684702D0EC5703021704801F06EFDEB
:100E900031216E48039A01F069FD224632216B48E8
:100EA00001F064FD2A463321684801F05FFD40E00F
:100EB0003546DBE74125AD04D8E711252D05D5E7FB
:100EC00005222C21614801F051FD2B98C2B22D2141
:100ED0005E4801F04BFD2C98C2B22E215B4801F018
:100EE00045FD012C2CD0042C2CD0102C2CD03C46B1
:100EF000E2B2684602702004010E68460291417019
:100F00002002050E68468570240EC47030214F48BB
:100F100001F02CFD31214D48029A01F027FD2A46AF
:100F200032214A4801F022FD22463321474801F090
:100F30001DFD3198002809D03198012840D077E074
:100F40003C46D5E7424CD3E73F4CD1E7062234215B
:100F50003E4801F00BFD2F98C2B235213B4801F00D
:100F600005FD3098C2B23621384801F0FFFC3298B6
:100F7000012804D03298102801D111263605F2B28A
:100F8000684602703004070E684647703002040E4F
:100F900068468470350EC57038212C4801F0E6FC97
:100FA0003A463921294801F0E1FC22463A212748F6
:100FB00001F0DCFC2A463B21244801F0D7FC37E055
:100FC00006223421214801F0D1FC2F98C2B23521EC
:100FD0001E4801F0CBFC3098C2B236211B4801F00C
:100FE000C5FC3298012803D03298102800D1164F42
:100FF0006846FAB202703804060E68464670380237
:10100000040E684684703D0EC57038210F4801F00B
:10101000ADFC324639210D4801F0A8FC22463A21A8
:101020000A4801F0A3FC2A463B21084801F09EFC37
:10103000064800F0DFF842230449019A109800F0B6
:101040001FFA14B0F0BD000001001001670000207D
:1010500001000401FFB5099E15461F4610240A46EB
:1010600000210F4801F082FC2A4601210C4801F0C2
:101070007DFC012E0ED03A460221094800F0E8FB23
:10108000074800F0B7F8422322460549009800F0CF
:10109000F7F9FFBD3A460221014801F067FCEFE78E
:1010A000AB000020FFB583B017461C200290FE2045
:1010B000014008406A4610710D0A55710C0C94717C
:1010C0000E0ED6714006020E0421304801F04EFC8F
:1010D0006A0005212D4801F049FC620006212B48D9
:1010E00001F044FC72000721284801F03FFC002079
:1010F000012F00D101200699022401291DD0A0430F
:101100000C9A0421012A1AD088430D99202501291F
:1011100017D0A843C2B269460A70060A4E700C2165
:101120001A4801F023FC32460D21184801F01EFC3C
:1011300000200E99012906D006E02043E0E708438D
:10114000E3E72843E6E701200F9901291AD0A043DD
:101150001099012918D0A843C2B2040A0E210B48E5
:1011600001F004FC22460F21084801F0FFFB07486C
:1011700000F040F842230549029A039800F080F9F4
:1011800007B0F0BD2043E3E72843E5E7BB000020BC
:10119000FFB514461D460E26CAB20F0A0021144898
:1011A00001F0E4FB3A460121114801F0DFFBE2B215
:1011B000240A02210E4801F0D9FB224603210C48E3
:1011C00001F0D4FBEAB22C0A0421094801F0CEFB5D
:1011D00022460521064801F0C9FB054800F00AF83F
:1011E000422332460249009800F04AF9FFBD000050
:1011F000D700002070B50F4B00211970597041794C
:1012000002790902114308318DB20221AE1E08E0B5
:101210001A78445C12191A705C78A2185A70491C2A
:1012200089B2B142F4DB40191978203881775978B6
:10123000C17770BD0E000020F8B5079E05460C462C
:10124000174601202076284600F03CFB1946384618
:1012500001F01DFD3846069901F0EDFC204600F036
:1012600027FA0021204600F003FA002D02D0012DBC
:1012700003D004E00E48206001E00E4820600F21FA
:1012800009980906884321680861A6600898E0600B
:101290003146204600F0BAF92046089900F0DFF9FF
:1012A0000121204600F0E4F900202076F8BD00007E
:1012B000005400400058004000684268FF231B04AF
:1012C0009A4309041143416070470000F0B5044699
:1012D00008465904090C237E002B3DD101262676B1
:1012E0002061E282204600F0B1F9E08AFF280BD9A4
:1012F000FF20A082A08AC1B22046FFF7DDFF0121B6
:10130000204600F0C5F90AE0E08AA082A08AC1B2B6
:101310002046FFF7D1FF0121204600F087F9002188
:10132000204600F0E2F90121204600F0CEF9202508
:10133000524F002367E020683CE08169C90626D54A
:1013400021688969890608D400218269920602D43D
:10135000491CFF29F9D32376F0BDC169102211433E
:10136000C1612068C1692943C16120688169890719
:1013700000D5836220688169C90702D18169314340
:10138000816120684168394041602376F0BD816900
:1013900089060FD58169490702D5A18A00290CD198
:1013A0002168C9692943C1612068416839404160A9
:1013B0002376F0BD81694907BFD5406A216908706D
:1013C0002069401C2061A08A401EA082E08A401E45
:1013D000E082E08A002816D0A08A002813D1206875
:1013E00081690906FCD5E08AFF2806D9FF20A08282
:1013F0000121204600F04CF905E0E08AA08201219D
:10140000204600F013F9E08A002894D1206828E0F3
:101410008169C90625D58169890608D400218269B8
:10142000920602D4491CFF29F9D32376F0BDC16985
:1014300010221143C1612068C1692943C16120683C
:101440008169890700D5836220688169C90702D153
:101450008169314381612068416839404160237668
:10146000F0BD81698906D3D5C1692943C16120686E
:101470004168394041602376F0BD000000E800FE7D
:10148000F0B50446207E002840D15804060C012502
:1014900025762161E282E08AFF280BD9FF20A08215
:1014A000A08AC1B22046FFF707FF0121204600F0C5
:1014B000EFF80AE0E08AA082A08AC1B22046FFF7D6
:1014C000FBFE0121204600F0B1F80121204600F08A
:1014D0000CF93146204600F0B9F80121204600F011
:1014E000F4F82026484F002354E0206829E0816961
:1014F000C90626D521688969890608D40021826930
:10150000920602D4491CFF29F9D32376F0BDC169A4
:1015100010221143C1612068C1693143C161206853
:101520008169890700D5836220688169C90702D172
:10153000816929438161206841683940416023768F
:10154000F0BD81698907D2D5216909788162206956
:10155000401C2061A08A401EA082E08A401EE082DA
:10156000E08A002816D0A08A002813D1206881695B
:101570000906FCD5E08AFF2806D9FF20A0820121B8
:10158000204600F085F805E0E08AA082012120468F
:1015900000F04CF8E08A0028A7D1206828E0816993
:1015A000C90625D58169890608D400218269920679
:1015B00002D4491CFF29F9D32376F0BDC16910225A
:1015C0001143C1612068C1693143C16120688169EB
:1015D000890700D5836220688169C90702D18169C2
:1015E0002943816120684168394041602376F0BD1C
:1015F00081698906D3D5C1693143C16120684168D9
:10160000394041602376F0BD00E800FE00680268C2
:1016100001221203002905D0012902D1016891435A
:101620000160704701681143016070470122520652
:10163000002906D0012903D10068416811434160A7
:101640007047006841689143416070470068426894
:10165000920A92028905890D114341607047006822
:1016600002680F231B029A4319401143016070471F
:10167000002907D0012904D1006801680122114323
:1016800001607047006801684908490001607047BF
:1016900001221206002906D0012903D10068416801
:1016A0001143416070470068416891434160704751
:1016B00000B5034600211846FFF7DAFF18680068F6
:1016C00001211846FFF7D4FF00BD01225203002973
:1016D00006D0012903D10068416811434160704779
:1016E00000684168914341607047012292020029DD
:1016F00006D0012903D100684168914341607047D9
:1017000000684168114341607047000010B51249FC
:101710008868002203071148002B06DA8B68012431
:10172000E40423438B60027010BD8B685B0706D511
:101730008B680124A40423438B60027010BD8B6866
:10174000DB0606D58B680124240523438B600270D9
:1017500010BD0121017010BD0010024000000020EA
:1017600004488168C90703D0C0680349C0B28881B2
:1017700070470000003001400000002004488168EC
:10178000C90703D0C0680349C0B288817047000010
:101790000038004000000020134801680122114376
:1017A00001604168114A114041600168104A1140CE
:1017B00001600168012292049143016041683F2267
:1017C000120491434160C16A09090901C162016BB8
:1017D000FF22143291430163416B49084900416380
:1017E0000021816070470000001002400CB8FF0823
:1017F000FFFFF6FE002805DBC106C90E0120884068
:10180000014908607047000000E100E08307FF2203
:10181000DB0E9A408907090E9940002808DB8308EF
:1018200009489B001818036893430B4303607047F3
:101830000007000F0838830804489B001818C36984
:1018400093430B43C361704700E400E000ED00E008
:1018500010B50022437904791B02234308339BB25D
:10186000891DCCB206219B1E04E0A14200D1425446
:10187000491CC9B29942F8DB10BD000010B50446FE
:101880000D480069FEF7C3FF00220C4BFEF756FD22
:10189000FEF778FF401E0A494008486100238B612B
:1018A00005200861002003E00A69D203FCD5401C32
:1018B000A042F9D30B6110BD0000002000408F4012
:1018C00000E000E00849002807D0012804D1C869D9
:1018D000012292051043C8617047C8690122520570
:1018E0001043C861704700000010024070B53649CF
:1018F000C20703D08A698B141A438A61334B82076B
:1019000002D5CA691A43CA61C243940704D1CC699B
:1019100001256D052C43CC61440704D5CC69012514
:10192000AD052C43CC610524844302D18C691C4352
:101930008C61430701259B0F6D04032B02D1CB69FA
:101940002B43CB61530704D1CB690124A404234367
:10195000CB61030704D5CB690124E4042343CB61A5
:101960000923834304D1CB69012424052343CB619C
:101970000A23834303D18B69202423438B6103070C
:101980009C0F032C04D18C690126F60234438C6130
:101990000D24844303D1CC6902263443CC615B0F10
:1019A000072B03D1CB6910242343CB61120702D14B
:1019B0008A692A438A610B22824304D18869012201
:1019C00052021043886170BD0010024000400000C8
:1019D0000C49002809D001280DD0022804D14869FB
:1019E0000122D20410434861704748690122520421
:1019F00010434861704748690122920410434861CE
:101A0000704700000010024070B5044601210B48E9
:101A1000844201D11B2005E00948844201D11C20E9
:101A200000E01D2040B20546FFF7F0FE2846FFF714
:101A3000E1FE20680D210843206070BD00380140A0
:101A400000440040F3B581B006465021304600F016
:101A500020FF0024FEF798FB0D4F0546C8213046B5
:101A600000F075FE03461946029800F012FF286840
:101A7000C05C8006400F04D0BE4202D1054901205F
:101A8000C871641CA4B204488442E7D3FEBD0000C0
:101A9000005000400000002088130000F3B581B022
:101AA00004466521204600F0F9FE0025FEF76CFB98
:101AB000164E07467D21C900204600F07BFE0346F6
:101AC0001946029800F0EAFE3868C05C8006400FB4
:101AD00016D00F48844202D10120F07010E00D486A
:101AE000844202D1022030710AE00B48844202D1C4
:101AF0000320707104E00948844201D10420B071D0
:101B00006D1CADB206488542D4D3FEBD0000002056
:101B1000004C0040004400400014014000480040D8
:101B200088130000F0B59FB092A003C81B911A90D3
:101B30001AA8FFF75FFB924990480860914800247B
:101B400001250827039009232A460097019502944E
:101B50002046FFF771FB4620FFF790FE4223082244
:101B60001AA98748FFF78CFC4620FFF787FE42231F
:101B70000A221CA98248FFF7A9FB18A8067CB52EEB
:101B800002D000201FB0F0BD019402940494002301
:101B9000012242217A4803950094FFF783FA4620F8
:101BA000FFF76CFE01237D211A46C9007448FFF738
:101BB000EFFA4620FFF762FE202017901094189548
:101BC00019950320102115951697149512940E94CB
:101BD0000B910F9711940D9413900C940A97042174
:101BE0000894019509940295009506910390049438
:101BF000102308220797059420216148FEF7B8FEBC
:101C00004620FFF73BFE01231A46F0215C48009472
:101C1000FFF720FA4620FFF731FE01230022F021D2
:101C200057480095FFF716FA4620FFF727FE0123D5
:101C30000D22F02152480094FFF70CFA4620FFF7DE
:101C40001DFE01230322F0214D480094FFF702FA04
:101C50004620FFF713FE01230822F0214848009494
:101C6000FFF7F8F94620FFF709FE01234422F0218F
:101C700043480094FFF7EEF94620FFF7FFFD0123EC
:101C80001322F0213E480094FFF7E4F94620FFF7C5
:101C9000F5FD01234322F02139480094FFF7DAF9DA
:101CA0004620FFF7EBFD01234222F0213448009447
:101CB000FFF7D0F94620FFF7E1FD01234022F02194
:101CC0002F480094FFF7C6F94620FFF7D7FD012300
:101CD0000622F0212A480094FFF7BCF94620FFF7BE
:101CE000CDFD01230222F02125480094FFF7B2F92F
:101CF0004620FFF7C3FD01230722F021204800946E
:101D0000FFF7A8F94620FFF7B9FD01230422F021CF
:101D10001B480095FFF79EF94620FFF7AFFD012312
:101D20004122F02116480094FFF794F94620FFF76E
:101D3000A5FD01230F22F02111480094FFF78AF935
:101D40004620FFF79BFD01230522F0210C4800945B
:101D5000FFF780F94620FFF791FD01230A22F021C9
:101D600007480094FFF776F94620FFF787FD3046D5
:101D700008E70000B56206000000000000540040C3
:101D8000A00100200E090020F0B59EB0D74A002126
:101D90005172C178522970D1002400220021002301
:101DA0009C4641250BE1012C1AD10021865C2C2E8A
:101DB00007D14E2110AB1974272159749D7403214A
:101DC000012314AF04E07E54491CC9B2521CD2B2A4
:101DD000865C2C2E01D0012BF5D100235F267E548A
:101DE000032C37D100211646875C2C2F0AD14E21B7
:101DF00008AB1977272159779D770321012301E04B
:101E0000761CF6B2875D2C2F01D0012BF8D18619F4
:101E10007678532E01D00FAF13E001212D2308AEA9
:101E200033770FAE04E07354491CC9B2521CD2B2CE
:101E3000835C2C2BF7D109E07E54491CC9B2521C9B
:101E4000D2B2865C2C2E01D0012BF5D100235F2667
:101E50000FAF7E54052C3BD1865C2C2E0AD14E262A
:101E60000AAB5E54491CC9B227265E54491CC9B24C
:101E70005D5401230021164602E035E1761CF6B2DE
:101E8000875D2C2F01D0012BF8D186197678572E3B
:101E900001D00AAF13E001212D2308AE33720AAE40
:101EA00004E07354491CC9B2521CD2B2835C2C2B7F
:101EB000F7D109E07E54491CC9B2521CD2B2865CEB
:101EC0002C2E01D0012BF5D100235F260AAF7E54C2
:101ED000072C1ED1865C2C2E0AD14E2605AB5E54F3
:101EE000491CC9B227265E54491CC9B25D5401235E
:101EF000002105E005AF7E54491CC9B2521CD2B284
:101F0000865C2C2E01D0012BF4D100235F2705AE77
:101F10007754092C1DD1865C2C2E0AD14E2619AB84
:101F20005E54491CC9B227265E54491CC9B25D548F
:101F30000123002119AF04E07E54491CC9B2521C90
:101F4000D2B2865C2C2E01D0012BF5D100235F2666
:101F50007E54132C0CD1865C2C2E09D087187F78E8
:101F6000303F032F04D8312E02D0604F03267E72FB
:101F7000152C1DD1865C2C2E0AD14E266B465E5444
:101F8000491CC9B227265E54491CC9B25D540123BD
:101F900000216E4604E07754491CC9B2521CD2B2EB
:101FA000875C2C2F01D0012BF5D15F2373540023C4
:101FB000865C2C2E01D1641CE4B2521CD2B2162CC9
:101FC00000D2F0E6604600287CD1494A44201070D7
:101FD00000213A245470022019AE04E01354491C25
:101FE000C9B2401CC0B2735C5F2BF7D12C261654CB
:101FF000401CC0B254211154401CC0B21454401CA7
:10200000C0B2002114AF04E01354491CC9B2401CF3
:10201000C0B27B5C5F2BF7D11654401CC0B24C2180
:102020001154401CC0B21554401CC0B21454401C82
:10203000C0B200210FAF04E01354491CC9B2401CC8
:10204000C0B27B5C5F2BF7D11654401CC0B24C2150
:102050001154401CC0B24F211154401CC0B2145442
:10206000401CC0B200210AAF04E01354491CC9B29D
:10207000401CC0B27B5C5F2BF7D11654401CC0B231
:1020800053211154401CC0B250211154401CC0B205
:102090001454401CC0B2002105AF04E01354491C85
:1020A000C9B2401CC0B27B5C5F2BF7D11654401CF8
:1020B000C0B21554401CC0B21454401CC0B2002120
:1020C0006C4605E009E01354491CC9B2401CC0B27B
:1020D000635C5F2BF7D1002111540448417A032936
:1020E00001D002214172407A1EB0F0BD00000020F4
:1020F000B003002070B50546154C4B2109026069FC
:10210000FEF776F813498D4221D1134A5369012510
:10211000AD042B435361114B1D680F26B601B54327
:102120000526F601AD191D601D6A1126B60335435B
:102130001D62D36901252D052B43D361C860486812
:10214000CA13104348600D2008600020E07170BD84
:102150000000002000500040001002400004004831
:1021600070B504460E4615461E48844203D105202C
:10217000FFF7BCFB1EE01C48844203D10620FFF79A
:10218000B5FB17E01948844203D10720FFF7AEFBE7
:1021900010E01748844203D10820FFF7A7FB09E0AD
:1021A0001448844203D10920FFF7A0FB02E00A2073
:1021B000FFF79CFB3146204600F046FE29462046AC
:1021C00000F052FE2946204600F088FE29462046AF
:1021D00000F05EFE2946204600F0C0FE2046FFF7D4
:1021E00013FC70BD0038014000440040004800402E
:1021F000004C004000500040F8B504464C4D4B21C7
:1022000009026869FDF7F4FF4A4A4B490D279442D9
:102210001ED14A6901235B041A434A610922D2068E
:102220001368F026B343A0331360136A11263602F5
:1022300033431362CA6901235B041A43CA6122460D
:10224000D0605368D61333435360176000222A715D
:102250003A4A944219D14A6901235B041A434A61FC
:102260000922D20613681B091B010A331360136A83
:10227000442633431362CA690123DB041A43CA614B
:102280002246D06017600022EA702D4A94421CD189
:102290004A6901235B041A434A610922D206136882
:1022A0000F263602B343052676029B191360136A84
:1022B00055263604334313628A6920231A438A6100
:1022C0002246D060176000226A711E4A944220D1D3
:1022D0004A6901239B041A434A611B4A13680F266B
:1022E0003605B343052676059B191360536A1126FC
:1022F000B60233435362CA6901239B041A43CA617D
:102300002146C8604868CA13104348600F60002027
:10231000A87100267D27FF0000253946204600F0E1
:1023200049FA6D1CBD42F8D3761C042EF4DBF8BDCF
:10233000000000200044004000100240004C00401B
:10234000001401400048004000040048032101201F
:1023500000F0CAFC052000F0A7FADC48FFF78EFA6F
:10236000FFF7E0FBDA4DA872DA48FFF745FFDA48DD
:10237000FFF742FFD948FFF73FFFD948FFF73CFF7F
:10238000D848FFF7B7FE0024D74E0D21D14800F002
:1023900085FA00276421CF4800F00CFA0A2809D0FA
:1023A000641CE4B27F1CBFB2B742F3D3E8780028C4
:1023B00004D006E002240120E870F7E7C548FFF7E3
:1023C0001BFF022CE1D300241BE00D21C24800F0CA
:1023D00065FA00276421C04800F0ECF90A2809D00A
:1023E000641CE4B27F1CBFB2B742F3D32879002843
:1023F00007D103E0022401202871F7E7B648FFF770
:10240000FBFE022CE1D300241BE00D21B34800F0B9
:1024100045FA00276421B14800F0CCF90A2809D018
:10242000641CE4B27F1CBFB2B742F3D368790028C2
:1024300007D103E0022401206871F7E7A748FFF7FE
:10244000DBFE022CE1D300241BE00D21A44800F0A8
:1024500025FA00276421A24800F0ACF90A2809D027
:10246000641CE4B27F1CBFB2B742F3D3A879002842
:1024700007D103E002240120A871F7E79848FFF78D
:10248000BBFE022CE1D30621012000F09FFC0721B6
:10249000012000F091FB8E4C4B216278C9019348DA
:1024A000FFF75EFE512020720520FFF7E7F9904804
:1024B000FFF7E4F900254223FA228E498E48FEF701
:1024C00005FF8C480178FF291CD00024894A105D43
:1024D000242814D11019C078522810D10021FA3ABA
:1024E00027462046903704E0824B1B5C5354491C1E
:1024F000401CB842F8DB80481C30FFF745FC641CE8
:102500006A2CE3DB7D20C000FFF7B8F96D1C022DBB
:10251000D1DB6F4D754CC9E0BFF34F8F78497748D9
:10252000C860BFF34F8F00BFFDE7287A4E2803D065
:10253000287A41280ED022E072A1204600F01BFD2F
:102540006C492046FA3100F016FD70A1204600F0DB
:1025500012FDABE0E878002811D06AA1204600F017
:102560000AFD64492046FA3100F005FD214659482C
:1025700000F02EF965A1204600F0FDFC96E0287AD7
:10258000422807D1E878002804D021465148FFF7B7
:1025900085FA8BE0287A442814D12879002811D0B4
:1025A00058A1204600F0E7FC52492046FA3100F0DD
:1025B000E2FC2146484800F00BF954A1204600F007
:1025C000DAFC73E0287A452807D12879002804D05E
:1025D00021464148FFF762FA68E0287A472814D17B
:1025E0006879002811D047A1204600F0C4FC414979
:1025F0002046FA3100F0BFFC2146384800F0E8F8E8
:1026000042A1204600F0B7FC50E0287A482807D1C4
:102610006879002804D021463048FFF73FFA45E0AA
:10262000287A4A2814D1A879002811D035A120464B
:1026300000F0A1FC2F492046FA3100F09CFC214615
:10264000274800F0C5F831A1204600F094FC2DE0A9
:10265000287A4B2807D1A879002804D021462048A1
:10266000FFF71CFA22E0287A542814D1E8790028D0
:1026700011D024A1204600F07EFC1E492046FA31EC
:1026800000F079FC2146174800F06EF81FA12046A3
:1026900000F071FC0AE0287A502811D0287A5328DB
:1026A00000D107E71AA1204600F065FC314620461C
:1026B00000F0E2F82872287A4D2800D035E72BE7A1
:1026C00021460848FFF7BEF9F0E70000B88800008F
:1026D00000000020004C0040004400400014014075
:1026E0000048004000500040102700000038014022
:1026F00094110000B6020020A00100200400FA0599
:1027000000ED00E0264750533A000000260D0A0075
:102710000D0A0000F8B504460E4617461D46204631
:10272000FFF756F93A463146204600F035F9314672
:102730002046069A00F092F92A463146204600F0DB
:10274000ADF931462046079A00F05CF9F8BD002249
:1027500004E08A4201D100207047521CC3699B06E5
:10276000F7D5808CC0B27047F8B506460F465424A2
:102770000C48864203D10CA1384600F0FCFB2146F0
:10278000304600F086F80024094D64213046FFF7FA
:10279000DEFF0146384600F07CF8641CA4B2AC426F
:1027A000F3D3F8BD005000407C4155583D00000077
:1027B00050C30000002204E08A4201D1002070478B
:1027C000521CC3699B06F7D5808CC0B270470000CD
:1027D000F8B505460F461B48854204D11AA1384674
:1027E00000F0C9FB16E01A48854204D119A1384609
:1027F00000F0C1FB0EE01948854204D118A138460B
:1028000000F0B9FB06E01848854203D117A138460D
:1028100000F0B1FB0D21284600F040F80024154ED1
:1028200064212846FFF7C6FF01460D2904D00A2976
:1028300006D0384600F032F8641CA4B2B442EFD39C
:10284000F8BD0000004C00407C4348313A000000D5
:10285000004400407C4348323A000000001401402C
:102860007C4348333A000000004800407C43483431
:102870003A00000010270000002204E08A4201D143
:1028800000207047521CC3699B06F7D5808CC0B2EC
:102890007047C2695206FCD501857047C26952066D
:1028A000FCD5018570470000F0B52B4A2B4F07235C
:1028B0001B021515396900280CD0294E7400022816
:1028C00030D003283FD0052817D050689843506077
:1028D0007961F0BD234C6010A14205D15168994344
:1028E000491951607861F0BD814204D15168994322
:1028F00051607861F0BD7961F0BD1B48B14205D1EE
:1029000051689943491951607861F0BDA14207D1DE
:102910005168994305231B02C91851607861F0BDC5
:102920007961F0BDA14205D15068984340195060CB
:102930007E61F0BD022901D07961F0BD50689843F5
:1029400050607E61F0BD032901D07C61F0BD50680C
:10295000984350607C61F0BD0010024000000020F0
:1029600000366E010024F400001BB70010B5D2B28F
:10297000437904791B02234308339BB2891DCCB2EF
:1029800006219B1E04E0A14200D14254491CC9B259
:102990009942F8DB10BD0000002804D0012805D0C2
:1029A000022805D005E00923DB0602E0134B00E016
:1029B000134B032049008840002A0ED0012A10D072
:1029C000022A17D0032A07D11A6882431A601868AE
:1029D00002228A40104318607047196881431960C9
:1029E00070471A6882431A60186801228A401043AF
:1029F0001860704719680143196070470004004867
:102A000000080048002804D0012805D0022805D07D
:102A100005E00923DB0602E00E4B00E00E4B03202D
:102A200049008840002A0CD0012A0ED0022A07D182
:102A30009A6882439A60986801228A40104398609D
:102A4000704799680143996070479968814399601C
:102A5000704700000004004800080048002804D027
:102A6000012805D0022805D005E00923DB0602E095
:102A7000084B00E0084B01208840002A05D0012ABD
:102A800002D15968814359607047D9680143D960C0
:102A9000704700000004004800080048002804D0E7
:102AA000012805D0022805D005E00923DB0602E055
:102AB000104B00E0104B032049008840002A07D04B
:102AC000012A0ED0022A02D1D9688143D960704709
:102AD000DA688243DA60D86801228A401043D860FD
:102AE0007047DA688243DA60D86802228A4010436D
:102AF000D8607047000400480008004810B500295D
:102B00001ED001291ED002291ED003291ED004295F
:102B10001ED005291ED006291ED007291ED008293F
:102B20001ED009291ED00A291ED00B291ED00C291F
:102B30001ED00D291ED00E291ED00F291ED01EE03A
:102B400000231CE004231AE0082318E00C2316E0FD
:102B5000102314E0142312E0182310E01C230EE0CD
:102B600000230CE004230AE0082308E00C2306E01D
:102B7000102304E0142302E0182300E01C230028A3
:102B800004D0012805D0022805D005E00924E40678
:102B900002E0074C00E0074C082904D2206A9A4062
:102BA0001043206210BD606A9A401043606210BDFD
:102BB00000040048000800487CB505460C4600208B
:102BC0000121009101900223032221462846FFF7AC
:102BD000A1FD002D0DD0012D0AD1072C25D00B2CE5
:102BE00001D0042C04D1042221462846FFF786FF99
:102BF0007CBD012C0DD0052C11D00A2C03D0032C48
:102C000001D00F2CF4D1012221462846FFF776FF90
:102C10007CBD042221462846FFF770FF7CBD0522BB
:102C200021462846FFF76AFF7CBD00222146284640
:102C3000FFF764FF7CBD7CB505460C460020009084
:102C400003460190032221462846FFF763FD002D2D
:102C50000FD0012D0CD1062C13D0082C11D00A2C2A
:102C60000FD00D2C04D1052221462846FFF746FF40
:102C70007CBD092CFCD1042221462846FFF73EFFEB
:102C80007CBD012221462846FFF738FF7CBD7CB57C
:102C900005460C4600200090034601900322214681
:102CA0002846FFF737FD002D0FD0012D0CD1072C42
:102CB00013D0092C11D00B2C0FD00E2C04D10522CF
:102CC00021462846FFF71AFF7CBD0A2CFCD10422BE
:102CD00021462846FFF712FF7CBD012221462846E7
:102CE000FFF70CFF7CBD0000F8B504460D46002C34
:102CF00004D0012C04D100F001F901E000F018F932
:102D00002C4F2D482D4A002D46D051680907890FB8
:102D1000022905D1012C14D051688908890051601D
:102D2000116801263606B143116011688901FCD48F
:102D30000F218904022D10D0032D16D0042D1CD193
:102D400005E0516889088900491C5160E8E753682B
:102D50008B4353601A4901610FE053688B43012193
:102D6000890459185160076107E053688B430121BA
:102D70000905591851601349016111683143116007
:102D800011688901FCD551680223194351605168CB
:102D90000907890F0229FAD10069B84204DB0A4801
:102DA0000168312319430160012C02D11068A0434E
:102DB0001060F8BD00366E010000002000100240D7
:102DC0000024F400006CDC020020024070B50546CF
:102DD0000C462846FEF7FCFD032221462846FFF755
:102DE000DBFD002D0DD0012D0AD1062C25D00A2C9B
:102DF00001D0032C04D1042221462846FFF77EFE91
:102E000070BD002C0DD0042C11D0092C03D0022C45
:102E100001D00E2CF4D1012221462846FFF76EFE88
:102E200070BD042221462846FFF768FE70BD0522CA
:102E300021462846FFF762FE70BD00222146284643
:102E4000FFF75CFE70BD000010B5044605484269FE
:102E5000D00F80184010FDF7CBF9E1680843E0601F
:102E600010BD000000000020084ACB0903D0016813
:102E7000114301607047490603D501689143016021
:102E80007047016891430160704700000010000026
:102E900010B508220B46134010220A4013430D4A76
:102EA00009D00368134303600B4BCC0607D50168B8
:102EB0001943016010BD01689143016010BD09070D
:102EC00003D501689943016010BD01689143016019
:102ED00010BD000000040000000200008A06064940
:102EE00006D442688A430121490351184160704762
:102EF00042688A43426070470030000010B50420E9
:102F0000FEF778FC00210420FEF780FC074881686A
:102F1000C214114381600168D201914301600168CC
:102F2000092212041143016010BD0000001002408C
:102F300010B50420FEF75EFC00210420FEF766FCBD
:102F4000044881680215114381600168024A1143F7
:102F5000016010BD0010024001000800C90704D044
:102F600041680122D203114341607047C269520691
:102F7000FCD50185704770B506460D46002404E077
:102F8000295D3046FFF7F2FF641C2846FDF704F97F
:102F9000A042F5D870BD000010B500290AD008780D
:102FA000002807D005487844FDF744FC002801D0EC
:102FB000002010BD0248784410BD0000BE00000093
:102FC000B600000080807F7E7D7C7B7A7978777682
:102FD00076757473727171706F6E6E6D6C6C6B6AF6
:102FE0006A69686867666665646463636261616094
:102FF000605F5F5E5E5D5D5C5C5B5B5A5A59595811
:10300000585757565655555554545353525252517A
:10301000515050504F4F4F4E4E4D4D4D4C4C4C4BD0
:103020004B4B4A4A4A494949484848474747474617
:103030004646454545444444444343434342424253
:103040004241414174310008000000205801000055
:103050001A090008DC31000858010020300900007E
:10306000FC0000081001000043000000F8FFFFFF13
:10307000004040404040404040404141414141408B
:103080004040404040404040404040404040404040
:1030900040050202020202020202020202020202CF
:1030A00002202020202020202020200202020202D4
:1030B000020290909090909010101010101010102C
:1030C0001010101010101010101010100202020238
:1030D000020288888888888808080808080808087C
:1030E0000808080808080808080808080202020278
:1030F0004000000000000000000000000000000090
:1031000000000000000000000000000000000000BF
:1031100000000000000000000000000000000000AF
:10312000000000000000000000000000000000009F
:10313000000000000000000000000000000000008F
:10314000000000000000000000000000000000007F
:10315000000000000000000000000000000000006F
:10316000000000000000000000000000000000005F
:1031700000000000F301613B127A040015106801A1
:10318000049368010196680102956801207768013F
:10319000405704106802084DB562010708AB06935A
:1031A0001D1910033F3E3C1944DA0154110A18144A
:1031B0002CAB08060E0B233120628C211004342323
:1031C00011027A010A491413090D63FFFF29084C03
:0C31D000031B9A1569114114031DAB008C
:04000005080001519D
:00000001FF
