:020000040800F2
:10000000B019002051010008590100085B010008E7
:1000100000000000000000000000000000000000E0
:100020000000000000000000000000005D0100086A
:1000300000000000000000005F01000861010008EE
:10004000630100080000000063010008630100086C
:10005000F52000086301000863010008630100083F
:10006000000000006301000863010008630100084C
:10007000630100086301000863010008000000003C
:1000800063010008630100086301000863010008C0
:1000900063010008630100086301000863010008B0
:1000A000630100086521000885210008630100083C
:1000B000630100086301000800F002F800F039F85D
:1000C0000CA030C8083824182D18A246671EAB466D
:1000D00054465D46AC4201D100F02BF87E460F3EFF
:1000E0000FCCB6460126334200D0FB1AA246AB46DF
:1000F00033431847BC3C0000DC3C000000230024D4
:1001000000250026103A01D378C1FBD8520700D34E
:1001100030C100D50B6070471FB500F083FB0400B1
:100120000020002103F078FD401C60601FBD10B569
:1001300010BD00F02DFC1146FFF7EEFF02F010FF9E
:1001400000F045FC03B4FFF7F2FF03BC00F076FCBF
:100150000748804707480047FEE7FEE7FEE7FEE75F
:10016000FEE7FEE704480549054A064B70470000D4
:10017000A5210008B9000008B0130020B019002024
:10018000B0150020B015002010B500F04BFB001D8D
:1001900010BD00BF853A000030B5441C03E0017873
:1001A000401C00290DD08107F9D10B4BDD0104C89B
:1001B000D11A91432940FAD0001B0A0603D0C01E71
:1001C00030BD001B30BD0A0401D0801E30BD0902C5
:1001D000FCD0401E30BD00000101010100220309D6
:1001E0008B422CD3030A8B4211D300239C464EE052
:1001F00003460B433CD4002243088B4231D303090E
:100200008B421CD3030A8B4201D394463FE0C309BF
:100210008B4201D3CB01C01A524183098B4201D3D7
:100220008B01C01A524143098B4201D34B01C01AC2
:10023000524103098B4201D30B01C01A5241C3083A
:100240008B4201D3CB00C01A524183088B4201D3A9
:100250008B00C01A524143088B4201D34B00C01A95
:100260005241411A00D201465241104670475DE0AA
:10027000CA0F00D04942031000D34042534000222D
:100280009C4603098B422DD3030A8B4212D3FC22D6
:10029000890112BA030A8B420CD3890192118B4255
:1002A00008D3890192118B4204D389013AD092116B
:1002B00000E08909C3098B4201D3CB01C01A524126
:1002C00083098B4201D38B01C01A524143098B42EF
:1002D00001D34B01C01A524103098B4201D30B01D8
:1002E000C01A5241C3088B4201D3CB00C01A5241FD
:1002F00083088B4201D38B00C01A5241D9D24308E4
:100300008B4201D34B00C01A5241411A00D2014620
:10031000634652415B10104601D34042002B00D58A
:100320004942704763465B1000D3404201B500204C
:10033000C046C04602BD704770477047F0B5F94DE2
:100340000C091E092C402E402F468BB0A7437DD0B0
:10035000B543FCD0002E7AD0002CFCD00D465D4079
:10036000ED0F2543AC1BFF25AD0464190894C502AD
:10037000440DC9022143500DDC0204430120C00793
:1003800001430443D2020191200C110C00958C46CC
:10039000010423468B430A9161460904E24D8A43D6
:1003A0000991010A7D4449198039097805464D4370
:1003B00001266D18F605751B6943C90C640B891C71
:1003C0004C436418B5012C1B250C2E04B4434C433C
:1003D0004D43210C691889090591009DE90701D059
:1003E0000121C90704912C4601996708CD072F43C5
:1003F0004C08059DE10B4D432D0C2946664675437F
:1004000002950D4645432E46029D7D1BB441009545
:100410000D465D4301942C0C2F040D465543AE460A
:100420002D0C3D43029503947546049C2D04641BDA
:10043000049406D2029C039D641C0026754103951A
:10044000029401AC70CC009F7D1B01E03EE162E1B3
:10045000B44109040095079101940599A4086143EA
:10046000090C0C464443650BE7040C46664674438E
:10047000A646640B3C43039502947446049DE40431
:100480002C1B049406D2029C039D641C002675411B
:100490000395029401AC70CC009F7D1BB441019484
:1004A0000C465C430095650FE7000C465443A64696
:1004B000640F3C43039502947446049DE4002C1B96
:1004C000049406D2029C039D641C0026754103958A
:1004D000029401AC70CC009F7D1BB441AE09AF0605
:1004E000049DC900AD092F43049DA406AD060495E3
:1004F000079D344369180791059DE10B4D432D0C71
:1005000029466646754302950D4645432E46029D93
:100510007D1BB44100950D465D4301942C0C2F04C6
:100520000D465543AE462D0C3D430295039475464A
:10053000049C2D04641B049406D2029C039D641C3D
:10054000002675410395029401AC70CC009F7D1B81
:10055000B44101948C050694079C890A61180095A2
:100560000791019C0599A4086143090C0D46454378
:10057000680BEF040D46644665436C0B3C43049FD7
:10058000ED047D1BAC4602D20025641C6841009E30
:10059000019D371B85410846584301950C46460F7F
:1005A000C5005443600F28436546E4002C1B02D26B
:1005B0000025401C6E41019D3F1AB5412846BD09EA
:1005C000800628438446A009BF064E020699A40669
:1005D00076180743079D002068410A990790194340
:1005E0000020099B00906046FF1913434041E20F31
:1005F00064003A43A4460446D71A8C41A04203D96A
:100600000120009020463A46C70F941840416246A8
:10061000D20F2243644664000494009CBE466400EA
:10062000D71AA446044602978C417746002F01D181
:10063000A04204D96046401C8446029A2046C40F5A
:10064000A64694184041049A0546D20F22436446B8
:100650006400D31A8D417146002901D1A84202D904
:1006600028461A46641C10430122002800D0164375
:1006700061020020079B891904465C410223002C7B
:1006800002DB491813466441089DCE0A2D145D19FA
:100690004B056705E10A2C050D1908993E43C9076A
:1006A0006940002B08D0934006D30022761C5141AC
:1006B000002B01D1760876001C4A002D43DB154241
:1006C00041D0AA433FD030460BB0F0BD06180D46CE
:1006D0004D41174C7642AC411AD395181C465C41EB
:1006E000134A6D42A24113D3012252054C00D44259
:1006F0000AD15C00D4420BD04B4002D59202114388
:10070000E2E749004908DFE75940C90FC90718E087
:1007100000200849D8E7054801420DD10342F7D02F
:10072000F2E700000000FF07683900000000F07FDA
:100730000000E0FF0000F87F114859400143C0125B
:1007400041400020C0E70123089A9B069A4205DC3D
:10075000032252078918C90FC907B5E705225207B6
:100760008918074A1143D2125140ADE770B51546BA
:100770001C4602460B4628462146FFF7DFFD70BDAA
:10078000FFFFFF7F0346CA02400D10B510430A1554
:1007900004D00124E4072043002A05DB0A4CA21AF6
:1007A00004D4D040FF2A00DD002010BD4A00002BF9
:1007B00001D0012000E00020101801225205D04293
:1007C000F2D8C817C04310BD1E0400001F22030C3E
:1007D00002D10F22000402D0030E03D004E0002057
:1007E000014670470002083A030F01D10001121FB1
:1007F000830F01D18000921E002801DB4000521EB1
:10080000120551184205C012411810467047C10F19
:10081000C90700D04042012292071143D6E70121C7
:100820008907D3E7004870476C130020F8B5224CC5
:100830004E00069DA6420AD8A64201D1002806D144
:100840005E00A64203D8A6420AD1002A08D00D2491
:10085000240425422CD02946002000F077F8F8BD6A
:100860000C461C430CD4994202D0EFF30080F8BD33
:10087000904202D0EFF30080F8BDEFF30080F8BDA6
:1008800009242407E5008B4206D0EFF30080A04343
:10089000591A06D2284304E0101A05D3EFF300805A
:1008A000A04380F30088F8BDEFF30080A043F1E798
:1008B000009500F063F8F8BD0000E0FF00487047C5
:1008C0004C130020024670B50A4392072AD11E4DF0
:1008D000EE0104C808C9541B9443344017D0D0B269
:1008E000D9B2401A2106014310D190B299B2401AF0
:1008F000210401430AD110021902000A090A401A10
:100900002102014302D1100E190E401A70BD9A4205
:10091000DFD010BA19BA884201D9012070BD002079
:10092000C04370BD02780B78401C491C002A09D0D6
:100930009A4207D102780B78401C491C002A01D04A
:100940009A42EFD0D01A70BD01010101C80212D540
:100950004803400F002804D0C803C0430121884049
:100960007047EFF3008000010009032109070843E5
:1009700080F30088704700207047000010B5002009
:100980000249029A00F02BF810BD00000000F87F29
:100990007546FFF793FFAE46050069465346C0080B
:1009A000C000854618B020B5FFF7DCFB60BC00270F
:1009B0004908B6460026C0C5C0C5C0C5C0C5C0C52B
:1009C000C0C5C0C5C0C5403D49008D46704710B583
:1009D0000446C046C0462046FFF7B4FB10BD10B524
:1009E0000C461107090F092904D00A290AD0082941
:1009F0000CD104E011460820FFF7A8FF06E05106DD
:100A000006D501E0510601D50120C007214610BDE1
:100A1000D10607D501010909CC084907000E0006D7
:100A2000044309E0410F20024907000A0143200E58
:100A300000061D22D14101430846E7E7014918207D
:100A4000ABBEFEE726000200704770B58C18057833
:100A5000401C6B075B0F01D10378401C2A1106D1A3
:100A60000278401C03E00678401C0E70491C5B1E97
:100A7000F9D12B0705D40023521E0DD40B70491C4D
:100A8000FAE70378401CCB1A921C03E01D780D7026
:100A9000491C5B1C521EF9D5A142D8D3002070BD61
:100AA0000FB587B044200690FF200590059908985F
:100AB000084008900221FE48089A02F00FFD072224
:100AC0000321FB4802F00AFD0C9800286AD100229D
:100AD0000421F74802F002FDFF20049004990998D0
:100AE000084009900521F248099A02F0F7FCFF201E
:100AF000039003990A9808400A900621EC480A9A44
:100B000002F0ECFC0120000602900D98012805D1AE
:100B1000012109040298084302900DE00D98102865
:100B200005D10121090502980843029004E0012142
:100B300009040298084302900298C1B26846017104
:100B4000FF21090202980840010A68464171FF210D
:100B5000090402980840010C684681710298010E50
:100B60006846C1710079024608210090D04802F021
:100B7000B5FC68464079024609210090CC4802F055
:100B8000ADFC6846807902460A210090C84802F010
:100B9000A5FC6846C07902460B210090C44802F0CB
:100BA0009DFC70E00C9801286DD100220421C04802
:100BB00002F094FCFF2004900499099808400990E1
:100BC0000521BB48099A02F089FCFF200390039994
:100BD0000A9808400A900621B5480A9A02F07EFC5D
:100BE00001200006029001210298084302900D980E
:100BF000012804D109040298084302900DE00D98E1
:100C0000102805D10121090502980843029004E04B
:100C1000012109040298084302900298C1B2684673
:100C20000171FF21090202980840010A68464171DA
:100C3000FF21090402980840010C6846817102985E
:100C4000010E6846C171007902460821009098485B
:100C500002F044FC6846407902460921009094481D
:100C600002F03CFC6846807902460A2100909048D8
:100C700002F034FC6846C07902460B2100908C4893
:100C800002F02CFC00BF1098002861D101220C2139
:100C9000874802F023FCFF20049004990E98084036
:100CA0000E900D2182480E9A02F018FCFF2003904E
:100CB00003990F9808400F900E217D480F9A02F07B
:100CC0000DFC0120000602901198012805D1012198
:100CD000090402980843029004E0012109040298E3
:100CE000084302900298C1B268460171FF210902CF
:100CF00002980840010A68464171FF2109040298E0
:100D00000840010C684681710298010E6846C17165
:100D10000079024610210090654802F0DFFB68462A
:100D20004079024611210090614802F0D7FB6846E5
:100D300080790246122100905D4802F0CFFB6846A0
:100D4000C079024613210090594802F0C7FB67E0C2
:100D50001098012864D101220C21554802F0BEFBF5
:100D6000FF20049004990E9808400E900D215048E1
:100D70000E9A02F0B3FBFF20039003990F980840EE
:100D80000F900E214A480F9A02F0A8FB012000069E
:100D9000029001210298084302901198012804D181
:100DA000090402980843029004E001210904029812
:100DB000084302900298C1B268460171FF210902FE
:100DC00002980840010A68464171FF21090402980F
:100DD0000840010C684681710298010E6846C17195
:100DE0000079024610210090314802F077FB6846F6
:100DF00040790246112100902D4802F06FFB6846B1
:100E00008079024612210090294802F067FB68466B
:100E1000C079024613210090254802F05FFB00BF15
:100E2000149800286DD102221421214802F056FBAB
:100E3000FF200490049912980840129015211C4834
:100E4000129A02F04BFBFF2003900399139808407D
:100E5000139016211648139A02F040FB0120000659
:100E600002901598012805D1012109040298084330
:100E700002900DE01598202805D10121490502981E
:100E80000843029004E001210904029808430290FB
:100E90000298C1B268460171FF2109020298084018
:100EA000010A68464171FF2109040298084001E0E7
:100EB000A9010020010C684681710298010E684664
:100EC000C1710079024618210090FE4802F006FB2D
:100ED00068464079024619210090FA4802F0FEFA6D
:100EE0006846807902461A210090F64802F0F6FA28
:100EF0006846C07902461B210090F24802F0EEFAE3
:100F000070E0149801286DD102221421ED4802F0FE
:100F1000E5FAFF20049004991298084012901521D8
:100F2000E848129A02F0DAFAFF2003900399139826
:100F3000084013901621E348139A02F0CFFA0120DB
:100F4000000602900121029808430290159801289A
:100F500004D109040298084302900DE01598202856
:100F600005D10121490502980843029004E00121BE
:100F700009040298084302900298C1B268460171C0
:100F8000FF21090202980840010A68464171FF21C9
:100F9000090402980840010C684681710298010E0C
:100FA0006846C1710079024618210090C54802F0D8
:100FB00095FA68464079024619210090C14802F02E
:100FC0008DFA6846807902461A210090BD4802F0E9
:100FD00085FA6846C07902461B210090B94802F0A4
:100FE0007DFA00BF189800286AD103221C21B54859
:100FF00002F074FAFF2004900499169808401690A5
:101000001D21B048169A02F069FAFF200390039957
:101010001798084017901E21AA48179A02F05EFA06
:101020000120000602901998012805D10121090428
:101030000298084302900DE01998102805D101216B
:10104000090502980843029004E00121090402986E
:10105000084302900298C1B268460171FF2109025B
:1010600002980840010A68464171FF21090402986C
:101070000840010C684681710298010E6846C171F2
:1010800000790246202100908E4802F027FA684637
:1010900040790246212100908A4802F01FFA6846F2
:1010A0008079024622210090864802F017FA6846AD
:1010B000C079024623210090824802F00FFA70E0C6
:1010C000189801286DD103221C217E4802F006FAEF
:1010D000FF20049004991698084016901D21794825
:1010E000169A02F0FBF9FF20039003991798084025
:1010F00017901E217348179A02F0F0F9012000069C
:10110000029001210298084302901998012804D105
:1011100009040298084302900DE01998102805D19F
:101120000121090502980843029004E00121090405
:101130000298084302900298C1B268460171FF21EB
:10114000090202980840010A68464171FF2109041A
:1011500002980840010C684681710298010E6846A9
:10116000C1710079024620210090564802F0B6F97C
:1011700068464079024621210090524802F0AEF9BB
:10118000684680790246222100904E4802F0A6F976
:101190006846C0790246232100904A4802F09EF931
:1011A00000BF1C98002861D104222421454802F088
:1011B00095F9FF20049004991A9808401A90252167
:1011C00040481A9A02F08AF9FF20039003991B986D
:1011D00008401B9026213B481B9A02F07FF9012012
:1011E000000602901D98012805D1012109040298EA
:1011F0000843029004E00121090402980843029088
:101200000298C1B268460171FF21090202980840A4
:10121000010A68464171FF21090402980840010C47
:10122000684681710298010E6846C17100790246D4
:1012300028210090234802F051F96846407902467F
:10124000292100901F4802F049F96846807902463A
:101250002A2100901B4802F041F96846C0790246F5
:101260002B210090174802F039F96AE01C980128F8
:1012700067D104222421134802F030F9FF200490A2
:1012800004991A9808401A9025210E481A9A02F0DB
:1012900025F9FF20039003991B9808401B902621F5
:1012A00008481B9A02F01AF9012000060290012159
:1012B0000298084302901D98012807D1090402985A
:1012C000084301E0A9010020029004E00121090483
:1012D0000298084302900298C1B268460171FF214A
:1012E000090202980840010A68464171FF21090479
:1012F00002980840010C684681710298010E684608
:10130000C1710079024628210090FC4802F0E6F8FD
:1013100068464079024629210090F84802F0DEF83C
:101320006846807902462A210090F44802F0D6F8F7
:101330006846C07902462B210090F04802F0CEF8B2
:1013400000BF2098002874D105222C21EB4802F020
:10135000C5F8FF20049004991E9808401E902D2186
:10136000E6481E9A02F0BAF8FF20039003991F98EE
:1013700008401F902E21E1481F9A02F0AFF801208B
:10138000000602902198012805D101210904029844
:101390000843029016E02198042805D10121890410
:1013A0000298084302900DE02198102805D10121F0
:1013B000090502980843029004E0012109040298FB
:1013C000084302900298C1B268460171FF210902E8
:1013D00002980840010A68464171FF2109040298F9
:1013E0000840010C684681710298010E6846C1717F
:1013F0000079024630210090C04802F06FF868463C
:101400004079024631210090BC4802F067F86846F6
:101410008079024632210090B84802F05FF86846B1
:10142000C079024633210090B44802F057F87AE0C0
:10143000FFE72098012876D105222C21AF4802F041
:101440004DF8FF20049004991E9808401E902D210D
:10145000AA481E9A02F042F8FF20039003991F98B1
:1014600008401F902E21A5481F9A02F037F801204E
:101470000006029001210298084302902198012859
:1014800004D1090402980843029016E02198042828
:1014900005D1012189040298084302900DE02198AA
:1014A000102805D10121090502980843029004E0A3
:1014B000012109040298084302900298C1B26846CB
:1014C0000171FF21090202980840010A6846417132
:1014D000FF21090402980840010C684681710298B6
:1014E000010E6846C17100790246302100908348A0
:1014F00001F0F4FF684640790246312100907F48B0
:1015000001F0ECFF684680790246322100907B486A
:1015100001F0E4FF6846C079024633210090774825
:1015200001F0DCFF00BF249800286AD10622342194
:10153000724801F0D3FFFF200490049922980840DC
:10154000229035216D48229A01F0C8FFFF200390B8
:10155000039923980840239036216848239A01F084
:10156000BDFF0120000602902598012805D1012128
:1015700009040298084302900DE02598102805D12F
:101580000121090502980843029004E001210904A1
:101590000298084302900298C1B268460171FF2187
:1015A000090202980840010A68464171FF210904B6
:1015B00002980840010C684681710298010E684645
:1015C000C17100790246382100904C4801F086FF35
:1015D00068464079024639210090484801F07EFF74
:1015E0006846807902463A210090444801F076FF2F
:1015F0006846C07902463B210090404801F06EFFEA
:1016000070E0249801286DD1062234213B4801F076
:1016100065FFFF200490049922980840229035210C
:101620003648229A01F05AFFFF200390039923982D
:101630000840239036213148239A01F04FFF0120C2
:101640000006029001210298084302902598012883
:1016500004D109040298084302900DE0259810284F
:1016600005D10121090502980843029004E00121F7
:1016700009040298084302900298C1B268460171B9
:10168000FF21090202980840010A68464171FF21C2
:10169000090402980840010C684681710298010E05
:1016A0006846C1710079024638210090134801F064
:1016B00015FF684640790246392100900F4801F035
:1016C0000DFF6846807902463A2100900B4801F0F0
:1016D00005FF6846C07902463B210090074801F0AB
:1016E000FDFE00BF054800F04DF942230349069A6C
:1016F000079800F017FB0BB000BD0000A901002007
:10170000FFB581B00C4617461D46102000900026FC
:1017100020463043044622460021134801F0DEFEF5
:101720003846304307463A4601210F4801F0D6FEBD
:101730000A98012808D12846304305462A46022146
:10174000094801F0CBFE04E02A460221064800F0D9
:10175000AFFD054800F016F942230349009A0198AD
:1017600000F0E0FA05B0F0BDED010020FFB585B056
:101770000F461C2004903E46FE200390039806402E
:10178000FE20304069460872FF2000023040010A06
:1017900068464172FF2000043040010C68468172A7
:1017A000002001466846C172007A4006020E0421FC
:1017B000464801F093FE6846407A4006020E052135
:1017C000424801F08BFE6846807A4006020E0621F0
:1017D0003E4801F083FE6846C07A4006020E0721AB
:1017E0003A4801F07BFE00240798012801D1044308
:1017F00001E0640864000898012802D10220044333
:1018000003E002212046884304460E98012802D1B5
:101810000420044303E004212046884304460F9833
:10182000012802D12020044303E0202120468843E0
:10183000044668460471FF200002204001126846F9
:10184000417102790C21214801F048FE6846427935
:101850000D211E4801F042FE00251098012801D1FB
:10186000054301E06D086D001198012802D10220A6
:10187000054303E0022128468843054612980128C3
:1018800002D12020054303E0202128468843054655
:1018900068460570FF20000228400112684641702A
:1018A00002780E21094801F019FE684642780F219E
:1018B000064801F013FE054800F064F8422303498E
:1018C000049A059800F02EFA09B0F0BD1902002024
:1018D000FFB586B00C4615461E460E200590002723
:1018E00020463843044668460474FF200002204026
:1018F000011268464174027C0021214801F0EEFD8E
:101900006846427C01211E4801F0E8FD002003905A
:101910000398054368460572FF2000022840011223
:1019200068464172027A0221154801F0D7FD6846E7
:10193000427A0321124801F0D1FD00200190019864
:10194000064368460670FF200002304001126846D8
:101950004170027804210A4801F0C0FD68464278CF
:101960000521074801F0BAFD054800F00BF84223B5
:101970000349059A069800F0D5F90AB0F0BD0000B9
:101980003502002010B50023124C23706370437998
:101990001B0204792343083399B202220DE00D4B58
:1019A0001B78845C1B190B4C237023465B782478CE
:1019B0001B19084C6370531C9AB28B1E9342EEDCC9
:1019C000044B1C788B1EC454024B5C784B1EC454D1
:1019D00010BD000075030020F8B505460C461646FC
:1019E0001F4601202076284600F0AAFC39463046E2
:1019F00001F035FF3046069901F005FF204600F062
:101A000040FB0021204600F012FB002D02D11048BF
:101A1000206003E0012D01D10E4820600F2109064E
:101A200009988843216808610798A0600898E060D9
:101A30002046079900F0ACFA2046089900F0E7FA32
:101A40000121204600F0F3FA00202076F8BD0000C6
:101A5000005400400058004010B50A4600210368B9
:101A60005968FF2424040B46A3431946130423405A
:101A700019430368596010BDFFB582B004460F4694
:101A80001D466804050C207E002876D101202076B2
:101A900027610498E0822946204600F0ACFAE08AEB
:101AA000FF280BD9FF20A082A08AC1B22046FFF7F1
:101AB000D3FF0121204600F0CFFA0AE0E08AA0829D
:101AC000A08AC1B22046FFF7C7FF0121204600F0DF
:101AD0007DFA0021204600F0F6FA0121204600F0B0
:101AE000DDFAB2E00020019071E0206880691021E9
:101AF0000840002842D010E0002007E021688969F2
:101B000020221140002900D002E0401CFF28F5D31C
:101B100000BF0020207606B0F0BD2068806920213B
:101B200008400028E8D02068C069102108432168D7
:101B3000C8612068C069202108432168C861206805
:101B4000806902210840002802D0002021688862B4
:101B500020688069C007C00F002805D1206880690F
:101B60000121084321688861206840686C49084069
:101B70002168486000202076CDE7CEE020688069AB
:101B800020210840002818D02068806904210840DE
:101B9000002803D0A08A002800D01EE02068C06979
:101BA000202108432168C861206840685C490840DA
:101BB0002168486000202076ADE70198401CC0B243
:101BC00001900198FF2802D900202076A3E7206821
:101BD000806904210840002887D000BF2068406A3F
:101BE000216908702069401C2061A08A401EA082E3
:101BF000E08A401EE082E08A002825D0A08A0028E2
:101C000022D1009009E00098401CC0B200900098DA
:101C1000FF2802D9002020767DE720688069802196
:101C200008400028EFD0E08AFF2806D9FF20A082D4
:101C30000121204600F010FA05E0E08AA08201218F
:101C4000204600F0C3F900BF00BFE08A002800D0A2
:101C500048E700264DE020688069102108400028F0
:101C600040D00FE0002007E0216889692022114060
:101C7000002900D002E0401CFF28F5D300BF00205F
:101C8000207648E720688069202108400028E9D0B4
:101C90002068C069102108432168C8612068C069B4
:101CA000202108432168C86120688069022108401A
:101CB000002802D000202168886220688069C0075F
:101CC000C00F002805D120688069012108432168E0
:101CD00088612068406812490840216848600020F7
:101CE000207618E7701CC6B2FF2E02D9002020769D
:101CF00011E720688069202108400028ABD02068C7
:101D0000C06908432168C8612068406804490840E8
:101D1000216848600020207600BF00BFFBE600007D
:101D200000E800FEFFB582B004460F461D46207E47
:101D3000002878D16804050C0120207627610498DA
:101D4000E082E08AFF280BD9FF20A082A08AC1B2DE
:101D50002046FFF781FE0121204600F07DF90AE0D0
:101D6000E08AA082A08AC1B22046FFF775FE012159
:101D7000204600F02BF90121204600F0A4F9294665
:101D8000204600F038F90121204600F087F992E062
:101D90000020019052E0206880691021084000284E
:101DA00042D010E0002007E021688969202211401C
:101DB000002900D002E0401CFF28F5D300BF00201E
:101DC000207606B0F0BD20688069202108400028F8
:101DD000E8D02068C069102108432168C8612068E4
:101DE000C069202108432168C861206880690221F8
:101DF0000840002802D0002021688862206880699D
:101E0000C007C00F002805D1206880690121084360
:101E100021688861206840685C4908402168486002
:101E200000202076CDE7AEE00198401CC0B20190C2
:101E30000198FF2802D900202076C2E72068806937
:101E4000022108400028A6D0206900782168886215
:101E50002069401C2061A08A401EA082E08A401EAA
:101E6000E082E08A002825D0A08A002822D10090B4
:101E700009E00098401CC0B200900098FF2802D9E9
:101E8000002020769DE72068806980210840002896
:101E9000EFD0E08AFF2806D9FF20A082012120464A
:101EA00000F0DAF805E0E08AA0820121204600F087
:101EB0008DF800BF00BFE08A002800D068E7002648
:101EC0004DE02068806910210840002840D00FE0D4
:101ED000002007E02168896920221140002900D0F4
:101EE00002E0401CFF28F5D300BF0020207668E701
:101EF00020688069202108400028E9D02068C06956
:101F0000102108432168C8612068C0692021084366
:101F10002168C8612068806902210840002802D039
:101F200000202168886220688069C007C00F0028EF
:101F300005D12068806901210843216888612068F3
:101F4000406812490840216848600020207638E740
:101F5000701CC6B2FF2E02D90020207631E720681F
:101F60008069202108400028ABD02068C069084360
:101F70002168C861206840680449084021684860B9
:101F80000020207600BF00BF1BE7000000E800FE35
:101F900010B5002203681A680B4B1A40002908D0BC
:101FA00001290ED103681B680C03A3430468236056
:101FB00007E003681B6801242403234304682360AB
:101FC00000BF00BF10BD0000FFE0CF00002908D017
:101FD00001290ED1026852684B061A4303685A6001
:101FE00007E00268526801235B069A4303685A605F
:101FF00000BF00BF70470A46002103685968890A7C
:10200000890293059B0D194303685960704710B509
:102010000A460021036819680F2424020B46A343D3
:1020200019462346134019430368196010BD00295F
:1020300002D001290ED106E002681268520852004F
:1020400003681A6006E00268126801231A430368F5
:102050001A6000BF00BF7047002908D001290ED1C7
:10206000026852680B061A4303685A6007E0026868
:10207000526801231B069A4303685A6000BF00BFE1
:10208000704710B5044600212046FFF7D0FF2068B6
:10209000006801212046FFF7CAFF10BD002908D0C3
:1020A00001290ED1026852684B031A4303685A6033
:1020B00007E00268526801235B039A4303685A6091
:1020C00000BF00BF7047002902D0012910D107E0EE
:1020D0000268526801239B021A4303685A6007E0B2
:1020E0000268526801239B029A4303685A6000BF4A
:1020F00000BF70471948806808210840002809D0AF
:10210000164880680904084314498860002014496F
:10211000087022E01148806804210840002809D096
:102120000E488068090408430C49886000200C4967
:10213000087012E00948806810210840002809D082
:10214000064880680904084304498860002004495F
:10215000087002E001200249087070470010024038
:102160001000002005488068C007C00F002804D078
:102170000248C068C0B20249088070470030014080
:102180001800002005488068C007C00F002804D050
:102190000248C068C0B20249088070470038004059
:1021A00018000020194800680121084317490860F9
:1021B00008464068164908401449486008460068C7
:1021C0001449084011490860084600680121890443
:1021D00088430E490860084640683F210904884347
:1021E0000A4948600846C06A00090001C8620846FA
:1021F000006BFF2114318843044908630846406B93
:10220000400840004863002088607047001002408A
:102210000CB8FF08FFFFF6FE002809DB00BF00BF77
:10222000C206D20E01219140024A116000BF00BFD8
:102230007047000000E100E010B5002819DB1A4AE1
:1022400003231B02D21883089B00D2588307DC0E9D
:10225000FF23A3409A438B071B0E8407E40EA34081
:102260001A43114B032424021B198408A4001A5199
:1022700018E00E4A03071B0F083B9B089B00D2582F
:102280008307DC0EFF23A3409A438B071B0E8407B2
:10229000E40EA3401A43054B0407240F083CA4088E
:1022A000A4001A5110BD000000E100E01CED00E0A8
:1022B000F8B50B46002422404679360207793E43A2
:1022C0000836B5B29E1DF6B20096062105E0009EC6
:1022D000B14200D142544E1CF1B2AE1E8E42F6DC29
:1022E000F8BD00007CB5064612480068FEF78FFA7C
:1022F00004460022104BFEF721F801910090FEF7F2
:1023000041FA401E40080D494861002088610520BF
:102310000861002008E000BF084909690122120491
:1023200011400029F8D0401CB042F4D300200349EA
:1023300008617CBD0400002000408F4000E000E008
:10234000002802D0012810D107E00949C9690122FB
:1023500052051143064AD16107E00549C9690122C6
:1023600092051143024AD16100BF00BF70470000CF
:1023700000100240C107C90F002906D04F498969E2
:102380000122120311434D4A9161022101400229A9
:1023900006D14A49C969012292031143474AD161D2
:1023A0008107890F032906D14449C96901225205D1
:1023B0001143424AD16104210140042906D13F4919
:1023C000C9690122920511433C4AD16105210140AE
:1023D000052906D139498969012292031143374AF7
:1023E000916106210140062906D13449C9690122BB
:1023F00052041143314AD1614107490F072906D1DF
:102400002E49C9690122920411432C4AD161082145
:102410000140082906D12949C9690122D204114382
:10242000264AD16109210140092906D12349C969F8
:10243000012212051143214AD1610A2101400A29D2
:1024400005D11E498969202211431C4A91610C2142
:1024500001400C2906D1194989690122D202114390
:10246000164A91610D2101400D2905D11349C96911
:1024700002221143114AD1610E2101400E2905D1DA
:102480000E49C969102211430C4AD1610107090F95
:102490000F2906D109498969012252041143074ACB
:1024A00091610B2101400B2906D104498969012260
:1024B00052021143014A916170470000001002402E
:1024C000002804D001280AD0022818D10FE00D49B5
:1024D00049690122520411430A4A51610FE0094936
:1024E0004969012292041143064A516107E00549F6
:1024F00049690122D2041143024A516100BF00BF61
:102500007047000000100240F0B585B0044600207E
:1025100001210291039001460722521A022A01D991
:10252000022201E00722521A01928A1C072A01D2D4
:10253000002200E04A1F00920122019B9A40521E95
:10254000029B1A40009B9A4001279F407F1E039BDD
:102550001F4016463E4300BF0B48844201D11B2555
:1025600005E00A48844201D11C2500E01D253146C2
:1025700068B2FFF761FE68B2FFF74EFE20680D21DA
:102580000843206005B0F0BD003801400044004021
:10259000FEB504460D4600266520019000200090FF
:1025A0002046019900F0B9FE00272EE07D21C900E8
:1025B000204600F033FE06463146284600F0ADFEC8
:1025C000FDF7E2FD0068805D3821084000281AD040
:1025D0001048844203D101200F49087013E00F48CE
:1025E000844203D102200E4908700CE00D48844259
:1025F00003D103200C49087005E00C48844202D145
:1026000004200B490870781C87B20A488742CDDB4A
:10261000FEBD0000004C0040A1030020004400402B
:10262000A203002000140140A30300200048004042
:10263000A40300208813000010B5A0B0A1A103C915
:102640001C911B901BA8FFF79DF9A048A0490860AA
:10265000A0480021012208230093019202910390D7
:1026600009239B490020FFF7B7F94620FFF73AFE00
:10267000422308221BA99648FFF754FB4620FFF788
:1026800031FE42230A221DA99148FFF7F5F918A847
:10269000047DB52C02D0002020B010BD0020012107
:1026A00001900290049003460A4603910090422153
:1026B0008748FFF75BF84620FFF714FE01231A4610
:1026C0007D21C9008248FFF703F94620FFF70AFE83
:1026D00001202022082318901693179219900322A4
:1026E0000023149012931392159008220E931093C6
:1026F0001846194611930F92102208230A930B9241
:102700000C910D9000201A4604230890069307921E
:1027100009900322012304900293009301930392F2
:1027200005901023082220216948FEF7B9F94620B8
:10273000FFF7D8FD002001231A46F02100906448DD
:10274000FEF7DEFF4620FFF7CDFD01200346002205
:10275000F02100905E48FEF7D3FF4620FFF7C2FD50
:10276000002001230D22F02100905948FEF7C8FFF8
:102770004620FFF7B7FD002001230322F02100903F
:102780005348FEF7BDFF4620FFF7ACFD00200123B4
:102790000822F02100904E48FEF7B2FF4620FFF7D6
:1027A000A1FD002001234422F02100904848FEF7BB
:1027B000A7FF4620FFF796FD002001231322F021FA
:1027C00000904348FEF79CFF4620FFF78BFD00205A
:1027D00001234322F02100903D48FEF791FF46205F
:1027E000FFF780FD002001234222F02100903848AD
:1027F000FEF786FF4620FFF775FD002001234022EB
:10280000F02100903248FEF77BFF4620FFF76AFD7B
:10281000002001230622F02100902D48FEF770FFD2
:102820004620FFF75FFD002001230222F0210090E7
:102830002748FEF765FF4620FFF754FD00200123DF
:102840000722F02100902248FEF75AFF4620FFF7AA
:1028500049FD012003460422F02100901C48FEF7A8
:102860004FFF4620FFF73EFD002001234122F021CB
:1028700000901748FEF744FF4620FFF733FD002085
:1028800001230F22F02100901148FEF739FF462066
:10289000FFF728FD002001230522F02100900C48BD
:1028A000FEF72EFF4620FFF71DFD002001230A2220
:1028B000F02100900648FEF723FF4620FFF712FDA7
:1028C0002046E9E6B5620600000000000054004022
:1028D000140B00200E090020F0B59FB00346002025
:1028E000FE490870D87852287ED1002500210022A8
:1028F000002400201E90002633E1012D22D1002269
:10290000585C2C280DD14E2014AFB854501CC2B2C4
:102910002720B854501CC2B24120B854501CC2B237
:10292000012606E0585C14AFB854501CC2B2481CD3
:10293000C1B2585C2C2801D0012EF3D100265F20B3
:1029400014AFB854032D3FD100220C46585C2C28FC
:102950000DD14E200FAFB854501CC2B22720B8542E
:10296000501CC2B24120B854501CC2B2012601E032
:10297000601CC4B2185D2C2801D0012EF8D1601C57
:10298000185C53280FD101222D2008AF387706E0BC
:10299000585C0FAFB854501CC2B2481CC1B2585C4E
:1029A0002C28F5D10CE006E0585C0FAFB854501C51
:1029B000C2B2481CC1B2585C2C2801D0012EF3D100
:1029C00000265F200FAFB854052D41D1585C2C284C
:1029D0000FD14E200AAFB854501CC2B22720B854B1
:1029E000501CC2B2412000E07FE1B854501CC2B27A
:1029F000012600220C4601E0601CC4B2185D2C28A0
:102A000001D0012EF8D1601C185C57280FD101228B
:102A10002D2008AF387206E0585C0AAFB854501C3D
:102A2000C2B2481CC1B2585C2C28F5D10CE006E0BB
:102A3000585C0AAFB854501CC2B2481CC1B2585CB2
:102A40002C2801D0012EF3D100265F200AAFB85404
:102A5000072D22D1585C2C280DD14E2005AFB8543B
:102A6000501CC2B22720B854501CC2B24120B854E6
:102A7000501CC2B20126002206E0585C05AFB854D3
:102A8000501CC2B2481CC1B2585C2C2801D0012E87
:102A9000F3D100265F2005AFB854092D22D1585C30
:102AA0002C280DD14E2019AFB854501CC2B227208B
:102AB000B854501CC2B24120B854501CC2B20126B6
:102AC000002206E0585C19AFB854501CC2B2481C32
:102AD000C1B2585C2C2801D0012EF3D100265F2012
:102AE00019AFB854132D10D1585C2C280DD0481CA8
:102AF000185C302809DB481C185C332805DC585C5E
:102B0000312802D00320754F3870152D22D1585C22
:102B10002C280DD14E206F46B854501CC2B227202D
:102B2000B854501CC2B24120B854501CC2B2012645
:102B3000002206E0585C6F46B854501CC2B2481CD4
:102B4000C1B2585C2C2801D0012EF3D15F206F4612
:102B5000B8540026585C2C2801D1681CC5B2481C0A
:102B6000C1B2162D00DAC8E61E9800287ED10021D9
:102B700044205B4F78540024491C3A207854491C67
:102B800007E019A8005D564F7854601CC4B2481C79
:102B9000C1B219A8005D5F28F3D12C20504F7854A2
:102BA000481CC1B254207854481CC1B23A20785411
:102BB000481CC1B2002407E014A8005D484F7854B7
:102BC000601CC4B2481CC1B214A8005D5F28F3D1D8
:102BD0002C20434F7854481CC1B24C207854481CD8
:102BE000C1B241207854481CC1B23A207854481CE4
:102BF000C1B2002407E00FA8005D394F7854601C73
:102C0000C4B2481CC1B20FA8005D5F28F3D12C20CC
:102C1000334F7854481CC1B24C207854481CC1B280
:102C20004F207854481CC1B23A207854481CC1B295
:102C3000002407E00AA8005D294F7854601CC4B244
:102C4000481CC1B20AA8005D5F28F3D12C20244F94
:102C50007854481CC1B253207854481CC1B250204B
:102C60007854481CC1B23A20785400E02DE0481C4A
:102C7000C1B2002407E005A8005D194F7854601C1C
:102C8000C4B2481CC1B205A8005D5F28F3D12C2056
:102C9000134F7854481CC1B241207854481CC1B22B
:102CA0003A207854481CC1B2002407E06846005D11
:102CB0000B4F7854601CC4B2481CC1B26846005D1A
:102CC0005F28F3D10020064F785404480078032889
:102CD00002D00220014F3870004803E0FF050020B9
:102CE000150F002000781FB0F0BD00BFFBE700000B
:102CF00070B504460E4615461E48844203D1052091
:102D0000FFF738FB1EE01C48844203D10620FFF782
:102D100031FB17E01948844203D10720FFF72AFB53
:102D200010E01748844203D10820FFF723FB09E095
:102D30001448844203D10920FFF71CFB02E00A205B
:102D4000FFF718FB3146204600F09AFE2946204640
:102D500000F0A8FE2946204600F0ECFE2946204659
:102D600000F0BCFE2946204600F032FF2046FFF767
:102D7000CBFB70BD003801400044004000480040DB
:102D8000004C004000500040F8B504466948066811
:102D9000F10F891948104B21C901FDF729FA0546A1
:102DA000654884422CD165484069012149040843A3
:102DB000624948610920C0060068F021884320303C
:102DC000802108430921C90608600846006A1121CC
:102DD000090208430921C90608625848C06901214F
:102DE000490408435549C8612046C5604068E1135D
:102DF0000843214648600D200860002050490870B3
:102E00005048844227D14D48406901214904084374
:102E10004A4948610920C006006800090001801C79
:102E2000082108430921C90608600846006A4421B0
:102E300008430921C90608624048C0690121C90444
:102E400008433E49C8612046C5600D202146086000
:102E500000203D4908703D4884422AD137484069E6
:102E6000012149040843354948610920C00600682A
:102E70000F2109028843FF30FF300230E11408437C
:102E80000921C90608600846006A5521090408435B
:102E90000921C90608622948806920210843274979
:102EA00088612046C5600D20214608600020284921
:102EB0000870284884422BD12048406901218904A8
:102EC00008431E494861244800680F2109058843CA
:102ED0000121C9054018891008431F4908600846A8
:102EE000406A1121890208431B4948621348C0699E
:102EF000090208431149C8612046C5604068E113D2
:102F00000843214648600D200860002013490870DE
:102F100000260CE0002705E07D21C900204600F0D6
:102F20007DF97F1C7D20C0008742F5D3761C042EDE
:102F3000F0DBF8BD08000020004400400010024013
:102F4000A2030020004C0040A10300200014014017
:102F5000A30300200048004000040048A403002010
:102F60000321012000F0A8FC052000F0DFF9FFF7A5
:102F700063FB804908708048FFF706FF7F48FFF732
:102F800003FF7F48FFF700FF7E48FFF7FDFE0621A5
:102F9000012000F037FD0721012000F0F5FB7A4801
:102FA00002784B21C9017948FFF7A2FE51207849E8
:102FB00008700520FFF796F97648FFF793F9D7E0F8
:102FC00000252DE04223FA2273497448FEF754FD90
:102FD00071480078FF281ED000241AE06E48005D7A
:102FE000242815D16C49E01C085C522810D1002619
:102FF000204605E06849095C694A9155761C401CE9
:10300000214690318842F5DB6548FFF765FC00BF3B
:10301000641C6A2CE2DB7D20C000FFF763F96D1CA5
:10302000022DCFDBA2E05F49584800F065F958490E
:103030000870084600784D280BD100BFBFF34F8FB2
:1030400059485A49C860BFF34F8F00BF00BF00BF47
:10305000FDE74F4800784E280CD155A14B4800F0B1
:10306000CAFD5549494800F0C6FD54A1474800F043
:10307000C2FD76E046480078412810D14CA1434873
:1030800000F0B9FD4C49414800F0B5FD3F493A48D0
:1030900000F0D6F849A13D4800F0ADFD61E03C48A4
:1030A0000078422804D139493348FFF771FA58E0D3
:1030B00037480078442810D13DA1344800F09BFDEA
:1030C0003D49324800F097FD30492C4800F0B8F8EF
:1030D0003AA12E4800F08FFD43E02D4800784528A6
:1030E00004D12A492548FFF753FA3AE028480078E6
:1030F000472810D12EA1254800F07DFD2E492348F8
:1031000000F079FD21491E4800F09AF82BA11F48D4
:1031100000F071FD25E01E480078482804D11B49C5
:103120001748FFF735FA1CE0194800784A2810D1F3
:103130001FA1164800F05FFD1F49144800F05BFD19
:103140001249104800F07CF81CA1104800F053FD13
:1031500007E00F4800784B2803D10C490948FFF7D6
:1031600017FA0B480078532800D100E05BE700BF56
:1031700026E7000000060020004C0040004400400C
:103180000014014000480040DB05002000380140E9
:10319000FA05002094110000110E0020140B0020ED
:1031A000170D0020102700000400FA0500ED00E0D4
:1031B000264750533A000000150F0020260D0A0044
:1031C000FFB581B004460F461E462046FFF778F94A
:1031D000002C02D10925ED0606E0012C01D10D4D90
:1031E00002E0022C00D10C4D39462046039A00F033
:1031F0008FF9394620460A9A00F006FA32463946D7
:10320000204600F025FA394620460B9A00F0C6F910
:1032100005B0F0BD000400480008004810B50246A3
:10322000002304E08B4201D1002010BD5B1CD0695B
:10323000202420402028F5D1908CC0B2F5E7000072
:10324000F8B504460E460025002000901D48844233
:1032500004D11DA1304600F0CEFC16E01C4884428B
:1032600004D11CA1304600F0C6FC0EE01B4884428D
:1032700004D11BA1304600F0BEFC06E01A4884428F
:1032800003D11AA1304600F0B6FC0D21204600F013
:1032900044F8002711E064212046FFF7BFFF0546F0
:1032A0000D2D00D107E00A2D00D109E02946304656
:1032B00000F033F800BF781C87B20E488742EADB83
:1032C00000BFF8BD004C00407C4348313A0000008C
:1032D000004400407C4348323A00000000140140A2
:1032E0007C4348333A000000004800407C434834A7
:1032F0003A0000001027000010B50246002304E049
:103300008B4201D1002010BD5B1CD06920242040DD
:103310002028F5D1908CC0B2F5E700BFC2694023E8
:103320001A40402AFAD1CAB20285704770B50646E3
:10333000002E06D0022E6BD0032E7DD0052E7CD120
:1033400031E05B480068FDF762FA04460022594B01
:1033500000F078FC0DD158484068072109028843E5
:103360000121890240185449486054485449086072
:1033700018E04F480068FDF74AFA04460022514B16
:1033800000F060FC0AD14C484068072109028843DC
:103390004949486049484A49086003E04448006890
:1033A0004749086082E042480068FDF730FA044669
:1033B0000022454B00F046FC0DD13F4840680721F4
:1033C000090288430121890240183B4948603F486F
:1033D0003B4908601BE036480068FDF718FA0446D0
:1033E00000223B4B00F02EFC0DD1334840680721F2
:1033F000090288430521090240182F4948603348D3
:103400002F49086003E02A4800682D4908604DE014
:1034100027480068FDF7FBF9044600222C4B00F01A
:1034200011FC10D12448406807210902884301217A
:1034300089024018204901E019E02BE04860254846
:103440001F49086012E01A48006802280AD11A4889
:103450004068072109028843174948601D481849F8
:10346000086003E012480068154908601EE0104833
:10347000006803280AD110484068072109028843E0
:103480000D49486014480E49086002E012480C4992
:1034900008600BE008484068072109028843064994
:1034A0004860034800680649086000BF00BF70BD5F
:1034B0000400002080846E410010024000127A0057
:1034C0000800002080845E4160E37641001BB70065
:1034D00060E3864100366E01006CDC02F8B50B46F5
:1034E000FF2422404679360207793E430836B5B2BA
:1034F0009E1DF6B20096062105E0009EB14200D165
:1035000042544E1CF1B2AE1E8E42F6DCF8BD0000F5
:1035100070B50346002B02D10920C00606E0012B3E
:1035200001D11C4802E0022B00D11B48002A06D022
:10353000012A0BD0022A16D0032A28D11AE00468E7
:103540004E000325B540AC43046020E004684E0003
:103550000325B540AC43046004684E000125B54026
:103560002C43046013E004684E000325B5402C434F
:1035700004600CE005684E000324B440A5430560D8
:1035800004684E000225B5402C43046000BF00BF14
:1035900070BD0000000400480008004870B50346F4
:1035A000002B02D10920C00606E0012B01D11448EE
:1035B00002E0022B00D11348002A04D0012A16D0C1
:1035C000022A1BD106E084684E000325B5402C4337
:1035D000846013E085684E000324B440A5438560F1
:1035E00084684E000125B5402C43846006E0856860
:1035F0004E000324B440A543856000BF00BF70BDEA
:10360000000400480008004830B50346002B02D1F2
:103610000920C00606E0012B01D10B4802E0022B75
:1036200000D10A48002A07D0012A0BD1446801259D
:103630008D40AC43446005E0C46801258D402C43B7
:10364000C46000BF00BF30BD00040048000800484F
:1036500070B50346002B02D10920C00606E0012BFD
:1036600001D1174802E0022B00D11648002A04D0ED
:10367000012A0FD0022A21D119E0C4684E00032587
:10368000B540AC43C460C4684E000125B5402C432E
:10369000C46013E0C5684E000324B440A543C56070
:1036A000C4684E000225B5402C43C46006E0C468DF
:1036B0004E000325B540AC43C46000BF00BF70BDE1
:1036C000000400480008004870B50346144600296D
:1036D00001D100203AE0012901D1042036E002297D
:1036E00001D1082032E0032901D10C202EE0042969
:1036F00001D110202AE0052901D1142026E0062955
:1037000001D1182022E0072901D11C201EE0082940
:1037100001D100201AE0092901D1042016E00A296C
:1037200001D1082012E00B2901D10C200EE00C2958
:1037300001D110200AE00D2901D1142006E00E2944
:1037400001D1182002E00F2900D11C20002B02D14A
:103750000922D20606E0012B01D1094A02E0022B20
:1037600000D1084A082905DA156A264686403543FD
:10377000156204E0556A264686403543556270BDA1
:1037800000040048000800487CB505460C460020AF
:103790000121022303220091019021462846FFF7D0
:1037A0000FFD002D1BD1012C05D1042221462846F6
:1037B000FFF78AFF26E0052C05D105222146284681
:1037C000FFF782FF1EE00A2C03D0032C01D00F2C40
:1037D00018D1012221462846FFF776FF12E0012D7D
:1037E00010D1072C05D1002221462846FFF76CFF97
:1037F00008E00B2C01D0042C04D1042221462846D9
:10380000FFF762FF7CBD7CB505460C4600200090AA
:1038100003460322214601902846FFF7D1FC002DE4
:1038200007D1092C1AD1042221462846FFF74CFF64
:1038300014E0012D12D1062C03D0082C01D00A2C43
:1038400005D1012221462846FFF73EFF06E00D2C58
:1038500004D1052221462846FFF736FF7CBD7CB502
:1038600005460C46002000900346032221460190A5
:103870002846FFF7A5FC002D07D10A2C1AD10422F7
:1038800021462846FFF720FF14E0012D12D1072C16
:1038900003D0092C01D00B2C05D10122214628464A
:1038A000FFF712FF06E00E2C04D105222146284620
:1038B000FFF70AFF7CBD0000F8B504460F46002C58
:1038C00004D0012C05D100F049F902E000F066F9BE
:1038D00000BF00BF002F6EDD434840680C21084048
:1038E00008280FD1012C07D13F484068800880008C
:1038F000401C3D49486005E03B4840688008800026
:10390000394948603848006801210906884336492A
:10391000086000BF344800680121490608400028BB
:10392000F8D1022F0ED0032F1AD0042F26D12E4803
:1039300040680F21890488432B4948602B482C4953
:1039400008601BE0284840680F2189048843012152
:1039500089044018244948602648254908600DE03C
:10396000214840680F218904884301210905401836
:103970001D49486020481E49086000BF00BF1A4822
:1039800000680121090608431749086000BF16486E
:1039900000680121490608400028F8D01248406814
:1039A000022108431049486000BF0F4840680C21BD
:1039B00008400828F9D10E480068FCF728FF0546A2
:1039C00000220E4B00F070F905D80D480068312137
:1039D00008430B490860012C04D103480068A04348
:1039E00001490860F8BD0000001002400024F40006
:1039F0000400002000366E01006CDC0260E37641BA
:103A00000020024070B505460C462846FEF758FDDA
:103A1000032221462846FFF77BFD002D1BD1002CF9
:103A200005D1042221462846FFF74EFE26E0042C4D
:103A300005D1052221462846FFF746FE1EE0092C47
:103A400003D0022C01D00E2C18D101222146284689
:103A5000FFF73AFE12E0012D10D1062C05D100220D
:103A600021462846FFF730FE08E00A2C01D0032C3F
:103A700004D1042221462846FFF726FE70BD00002F
:103A800070B504460E4606480568E90F4919481006
:103A90003146FCF7ADFBE1680843E06070BD000013
:103AA0000800002010B5024680230B40802B05D172
:103AB000036801242403234303600EE040230B40EA
:103AC000402B05D1036801242403A343036004E0D1
:103AD000036801242403A343036010BD08220A40A5
:103AE000002A09D110220A40002A05D102680123C8
:103AF0009B029A4302601CE0026801239B021A4366
:103B0000026010220A40102A04D102685B101A4396
:103B100002600EE008220A40082A05D1026801234B
:103B20005B029A43026004E0026801239B029A430D
:103B30000260704720220A40202A08D042680323EE
:103B40001B039A4301235B03D218426004E04268DE
:103B500003231B039A4342607047000010B5042002
:103B6000FEF75AFB00210420FEF766FB0A48806836
:103B70000121C902084308498860084600680121FC
:103B8000890488430449086008460068092109043B
:103B900008430149086010BD0010024010B5042020
:103BA000FEF73AFB00210420FEF746FB064880683A
:103BB00001218902084304498860084600680349D6
:103BC00008430149086010BD0010024001000800D0
:103BD000CA07D20F002A04D042680123DB031A432C
:103BE0004260704700BFC26940231A40402AFAD1A0
:103BF000CAB20285704770B506460C46002504E03F
:103C0000615D3046FFF7EEFF6D1C2046FCF7C4FAFD
:103C1000A842F5D870BD000010B500290AD0087878
:103C2000002807D005487844FCF74CFE002801D056
:103C3000002010BD0248784410BD0000AA01000019
:103C4000A201000070B501250C002D051C4310D405
:103C5000EC4206D4AC420AD4994200D070BD9042E6
:103C600070BDE94217D4EB4215D4994270BD894228
:103C700070BDEC4206D5AC42F9D58B4200D070BD88
:103C8000824270BD6D004C00EC4204D25C00EC42FC
:103C900001D28B4270BD034C30B4FCF7C7FD30BC81
:103CA00070BD00BF1900120470B501251C002D0560
:103CB0000C4310D4EC4206D4AC420AD48B4200D060
:103CC00070BD824270BDEB4217D4E94215D48B42DD
:103CD00070BD9B4270BDEC4206D5AC42F9D599420D
:103CE00000D070BD904270BD6D005C00EC4204D20B
:103CF0004C00EC4201D2994270BD0FB4034C0CBC95
:103D000003BC30B4FCF792FD30BC70BD1900160442
:103D100080807F7E7D7C7B7A797877767675747308
:103D2000727171706F6E6E6D6C6C6B6A6A696868C7
:103D3000676666656464636362616160605F5F5E5D
:103D40005E5D5D5C5C5B5B5A5A59595858575756D3
:103D50005655555554545353525252515150505038
:103D60004F4F4F4E4E4D4D4D4C4C4C4B4B4B4A4A8A
:103D70004A494949484848474747474646464545CE
:103D80004544444444434343434242424241414107
:103D9000433A0000453A0000483A0000493A000022
:103DA0004E3A00004F3A0000523A0000533A0000E9
:103DB000E03E000800000020300600004A0A00082B
:103DC000544200083006002080130000FC00000868
:103DD0001001000043000000F8FFFFFF00404040DA
:103DE00040404040404041414141414040404040CE
:103DF000404040404040404040404040400502027A
:103E00000202020202020202020202020220202038
:103E10002020202020202002020202020202909094
:103E20009090909010101010101010101010101092
:103E300010101010101010100202020202028888E6
:103E400088888888080808080808080808080808F2
:103E500008080808080808080202020240000000DA
:103E60000000000000000000000000000000000052
:103E70000000000000000000000000000000000042
:103E80000000000000000000000000000000000032
:103E90000000000000000000000000000000000022
:103EA0000000000000000000000000000000000012
:103EB0000000000000000000000000000000000002
:103EC00000000000000000000000000000000000F2
:103ED00000000000000000000000000000000000E2
:103EE000517B127A04B20113AC3D100D089A99ED82
:103EF00041E17AD43FA0860130099A9981411F851A
:103F00009340423F1AA420100C295C4FC26666C63B
:103F10003F389D0720090AD7233D0AD7A33C438099
:103F20003E1AA0208DF628B0C1201BA33C24190402
:103F30002924211A90203808AE479140B81EC56048
:103F40002808713D7A407B148E5C39601A98208174
:103F500023ECC2380CD7A3D03FCDCC0C3F9A991993
:103F6000609A942034A8CC032EB4419A99D9203970
:103F7000409AA82029806809A4707D3FB81E853E1C
:103F8000809A9C200912E00118180F6801049368B8
:103F90000101966801029568024300091368012037
:103FA00077680140572BB562047B06936939148CFE
:103FB0000613040CFB090C340C1006090D493B06D2
:103FC0003EB6013B1944DA01890B181E142C110965
:103FD000191CAB08060E0B2331207E0467211164E7
:103FE000196C7B10040C0C4F13204C60141321022D
:103FF0004A02FE1A11087A010A3914430A321810CB
:10400000244549474E512C524D432A33410D0A183D
:104010006B0107401406090D63FFFF29084C031BC1
:104020009A1569114174031DAB00FF002110422055
:1040300063308440A550C660E770088129914AA189
:104040006BB18CC1ADD1CEE1EFF131121002733200
:104050005222B5529442F772D662399318837BB3D9
:104060005AA3BDD39CC3FFF3DEE362244334200490
:104070000114E664C774A44485546AA54BB5288529
:104080000995EEE5CFF5ACC58DD5533672261116E0
:104090003006D776F6669556B4465BB77AA7199779
:1040A0003887DFF7FEE79DD7BCC7C448E558866868
:1040B000A7784008611802282338CCC9EDD98EE9C9
:1040C000AFF9488969990AA92BB9F55AD44AB77A40
:1040D000966A711A500A333A122AFDDBDCCBBFFB19
:1040E0009EEB799B588B3BBB1AABA66C877CE44C50
:1040F000C55C222C033C600C411CAEED8FFDECCD69
:10410000CDDD2AAD0BBD688D499D977EB66ED55E1F
:10411000F44E133E322E511E700E9FFFBEEFDDDFB8
:10412000FCCF1BBF3AAF599F788F10148891A9819B
:10413000CAB1EBA10CD12DC14EF16FE18010A1509D
:10414000EEC230E3200450254046706760B9839882
:1041500093FBA3DAB33DC31CD37FE35EF3B10290BC
:1041600012F322D2323542145277625672EAB5CB3C
:10417000A5A89589856EF54FE52CD50DC5E234C30C
:1041800024A01481046674476424540544DBA7FA10
:10419000B79987B8975FE77EF71DC73CD7D326F25C
:1041A000369106B01657667676154634564CD96D5C
:1041B000C90EF92FE9C899E9898AB9ABA9445865AC
:1041C0004806782768C018E1088238A3287DCB5CB0
:1041D000DB3FEB1EFBF98BD89BBBAB9ABB754A54FC
:1041E0005A376A167AF10AD01AB32A923A2EFD0F7C
:1041F000ED6CDD4DCDAABD8BADE89DC98D267C074C
:104200006C645C454CA23C832CE01CC10C1FEF3E4F
:10421000FF5DCF7CDF9BAFBABFD98FF89F176E369B
:104220007E554E745E932EB23ED10EF01E41143D6B
:10423000806132013D04A53243093D2EC6AA4209E0
:1042400055FD3355032B4BF90F210753ED763141C3
:0442500060610000A9
:04000005080001519D
:00000001FF
